S01300002E2F4574636865724772626C2E6D6F742F
S3150800000000000120A1020008A9020008B1020008A8
S31508000010D5020008DD020008010300080000000000
S315080000200000000000000000000000002503000892
S315080000302D0300080000000035030008D9660008F3
S31508000040F9230008F9230008F9230008F923000812
S31508000050F9230008F9230008F9230008F923000802
S31508000060F9230008F9230008F9230008F9230008F2
S31508000070F9230008F9230008F9230008F9230008E2
S31508000080F9230008F9230008F9230008F9230008D2
S31508000090F9230008F9230008F9230008F9230008C2
S315080000A0F9230008F9230008F9230008F9230008B2
S315080000B0856A0008F9230008496D0008F923000835
S315080000C0F9230008F9230008F9230008F923000892
S315080000D0F92300080D670008F9230008F92300082A
S315080000E0F9230008F9230008F9230008F923000872
S315080000F0F9230008F9230008F9230008F923000862
S31508000100F9230008F9230008F9230008F923000851
S31508000110F9230008F9230008F9230008F923000841
S31508000120F9230008F9230008E5660008F923000802
S31508000130F92300080000000000000000F923000869
S31508000140F9230008F9230008F9230008F923000811
S31508000150F9230008F9230008F9660008F9230008BE
S31508000160F9230008F9230008F9230008F9230008F1
S31508000170F9230008F9230008000000000000000029
S31508000180F923000880B58EB000AF02F009F9394BA3
S315080001907B63394B3B61394BFB603B69BB6007E0CE
S315080001A0BB681A1DBA607A6B111D796312681A60EA
S315080001B0FA68BB689A42F3D8314B3B63314BBB6153
S315080001C03B6B7B6104E07B691A1D7A6100221A6029
S315080001D0BA697B699A42F6D802F0F0F83A463B1DAE
S315080001E01146184602F0CAF8274A284BD31A9B101C
S315080001F03B620023FB6107E0244AFB6952F823307F
S315080002009847FB690133FB613A6AFB699A42F3DC5A
S315080002101F4A204BD31A9B103B620023FB6107E061
S315080002201C4AFB6952F823309847FB690133FB6186
S315080002303A6AFB699A42F3DC7B683A6811461846C3
S3150800024003F0FCFEF862144A144BD31A9B10BB62E7
S31508000250BB6A7B6208E07B6A013B104A52F823308E
S3150800026098477B6A013B7B627B6A002BF3DCF86A62
S3150800027002F04AF8109500080000002074000020DB
S315080002807800002038260020800300088003000834
S315080002908003000880030008800300088003000824
S315080002A02948004700BF00BF80B400AFFEE700BF83
S315080002B01EF0040F0CBFEFF30880EFF309807146B8
S315080002C0224A104700BF00BF80B483B000AF7860F1
S315080002D03960FEE780B400AFFEE700BF1EF0040FEA
S315080002E00CBFEFF30880EFF309807146184A1047F0
S315080002F000BF00BF80B483B000AF78603960FEE706
S315080003001EF0040F0CBFEFF30880EFF30980714667
S31508000310104A104700BF00BF80B483B000AF7860B2
S315080003203960FEE780B400AFFEE700BF80B400AFD7
S31508000330FEE700BF80B400AFFEE700BF80B400AFA1
S3150800034000BFBD4680BC704785010008C902000889
S30D08000350F50200081903000874
S315080003581095000800000020740000201095000879
S315080003680000001000000010780000203826002041
S30D0800037800000010000000104F
S3150800038080B500AF0E4A0E4B1B6843F4007313602A
S315080003900B4A0B4B1B6843F480631360084A084BEF
S315080003A01B6843F480731360032000F005F90020EE
S315080003B000F008F806F048F90023184680BD00BF8B
S315080003C0003C024080B582B000AF786001F0B8F911
S315080003D00246094BA3FB02239B09184600F022F9A3
S315080003E0002279684FF0FF3000F0F2F80023184633
S315080003F00837BD4680BD00BFD34D621080B400AF3C
S31508000400044B1B680133034A136000BFBD4680BC1A
S31508000410704700BF7800002080B400AF024B1B680D
S315080004201846BD4680BC70477800002080B485B069
S3150800043000AF78607B6803F00703FB600C4BDB6852
S31508000440BB60BA684FF6FF031340BB60FB681A022D
S31508000450BB68134343F0BF6343F40033BB60044AED
S31508000460BB68D36000BF1437BD4680BC704700BF69
S3150800047000ED00E080B400AF044BDB6803F4E063F2
S315080004801B0A1846BD4680BC704700BF00ED00E059
S3150800049080B483B000AF0346FB71084997F907306B
S315080004A05B09FA7902F01F02012000FA02F241F80C
S315080004B0232000BF0C37BD4680BC704700E100E032
S315080004C080B483B000AF03463960FB7197F90730F3
S315080004D0002B0BDA0D49FB7903F00F03043B3A684E
S315080004E0D2B21201D2B20B441A7609E0084997F93A
S315080004F007303A68D2B21201D2B20B4483F800230D
S3150800050000BF0C37BD4680BC704700BF00ED00E059
S3150800051000E100E080B489B000AFF860B9607A60A5
S31508000520FB6803F00703FB61FB69C3F10703042BB0
S3150800053028BF0423BB61FB690433062B02D9FB6978
S31508000540033B00E000237B610122BB6902FA03F347
S315080005505A1EBB681A407B699A4001217B6901FAD9
S3150800056003F3591E7B680B40134318462437BD46D0
S3150800057080BC704780B582B000AF78607B68013B6D
S31508000580B3F1807F01D301230FE00A4A7B68013B60
S3150800059053600F214FF0FF30FFF792FF054B002203
S315080005A09A60044B07221A60002318460837BD468E
S315080005B080BD00BF10E000E080B582B000AF786073
S315080005C07868FFF733FF00BF0837BD4680BD00BF18
S315080005D080B586B000AF0346B9607A60FB73002326
S315080005E07B61FFF747FF78617A68B9687869FFF732
S315080005F091FF024697F90F3011461846FFF760FF3C
S3150800060000BF1837BD4680BD80B582B000AF03462F
S31508000610FB7197F907301846FFF73AFF00BF08370E
S31508000620BD4680BD80B582B000AF78607868FFF7B8
S31508000630A1FF034618460837BD4680BD80B483B07F
S3150800064000AF78607B68042B06D1094A084B1B6803
S3150800065043F00403136005E0054A054B1B6823F0C5
S315080006600403136000BF0C37BD4680BC704700BF4B
S3150800067010E000E080B584B000AF78600023FB602E
S315080006807B68002B01D101235AE07B68022283F89C
S3150800069035207B681B681B68FB60FA682A4B134089
S315080006A0FB607B685A687B689B681A437B68DB68D3
S315080006B01A437B681B691A437B685B691A437B6824
S315080006C09B691A437B68DB691A437B681B6A134379
S315080006D0FA681343FB607B685B6A042B07D17B6867
S315080006E0DA6A7B681B6B1343FA681343FB607B6803
S315080006F01B68FA681A607B681B685B69FB60FB68A5
S3150800070023F00703FB607B685B6AFA681343FB60A8
S315080007107B685B6A042B04D17B689B6AFA6813437F
S31508000720FB607B681B68FA685A61786800F0EAF92A
S315080007307B680022DA647B68012283F8352000236F
S3150800074018461037BD4680BD3F8010F080B584B08E
S3150800075000AFF860B9607A603B60FB6893F83430A4
S31508000760012B01D102232EE0FB68012283F83420F5
S31508000770FB68022283F83520FB681B68FA68126852
S31508000780126822F001021A603B687A68B968F8684C
S3150800079000F08AF9FB681B68FA681268126842F06A
S315080007A01E021A60FB681B68FA681268526942F0F2
S315080007B080025A61FB681B68FA681268126842F080
S315080007C001021A60002318461037BD4680BD00BFD7
S315080007D080B584B000AF78607B681B6DFB60FB68F2
S315080007E01A687B685B6D082101FA03F31340002B36
S315080007F02AD07B681B681B6803F00403002B23D0F0
S315080008007B681B687A681268126822F004021A600C
S315080008107B685B6D08229A40FB689A607B68DB6C94
S3150800082043F001027B68DA647B68042283F835208A
S315080008307B68002283F834207B689B6C002B03D0EE
S315080008407B689B6C78689847FB681A687B685B6D61
S31508000850934901FA03F31340002B2AD07B681B68DF
S315080008605B6903F08003002B23D07B681B687A68DA
S315080008701268526922F080025A617B685B6D884A69
S315080008809A40FB689A607B68DB6C43F002027B68DF
S31508000890DA647B68042283F835207B68002283F8B3
S315080008A034207B689B6C002B03D07B689B6C786834
S315080008B09847FB681A687B685B6D7A4901FA03F307
S315080008C01340002B2AD07B681B681B6803F00203C1
S315080008D0002B23D07B681B687A681268126822F09E
S315080008E002021A607B685B6D6E4A9A40FB689A60E2
S315080008F07B68DB6C43F004027B68DA647B6804225D
S3150800090083F835207B68002283F834207B689B6C4B
S31508000910002B03D07B689B6C78689847FB681A683D
S315080009207B685B6D102101FA03F31340002B4CD052
S315080009307B681B681B6803F00803002B45D07B689F
S315080009401B681B6803F48023002B1DD07B685B6D36
S3150800095010229A40FB689A607B681B681B6803F440
S315080009600023002B04D17B68312283F8352024E04C
S315080009707B681B681B6803F40023002B1DD07B686B
S31508000980412283F8352018E07B681B681B6803F44E
S315080009908073002B07D17B681B687A681268126817
S315080009A022F008021A607B685B6D10229A40FB6889
S315080009B09A607B68312283F835207B681B6C002B94
S315080009C003D07B681B6C78689847FB681A687B6855
S315080009D05B6D202101FA03F31340002B5CD07B6882
S315080009E01B681B6803F01003002B55D07B681B6837
S315080009F01B6803F48023002B25D07B685B6D2022BF
S31508000A009A40FB689A607B681B681B6803F400239E
S31508000A10002B08D17B685B6C002B3DD07B685B6C38
S31508000A207868984738E07B681B681B6803F40023DE
S31508000A30002B31D07B68DB6B002B2DD07B68DB6B02
S31508000A407868984728E07B681B681B6803F48073FE
S31508000A50002B07D17B681B687A681268126822F037
S31508000A6010021A607B685B6D20229A40FB689A60C8
S31508000A707B68DA6C7B68DA647B68112283F8352038
S31508000A807B68002283F834207B68DB6B002B03D05D
S31508000A907B68DB6B7868984700BF1037BD4680BD1A
S31508000AA0010080000400800080B485B000AFF860C3
S31508000AB0B9607A603B60FB681B68FA68126812685E
S31508000AC022F480221A60FB681B683A685A60FB6841
S31508000AD09B68402B08D1FB681B687A689A60FB689C
S31508000AE01B68BA68DA6007E0FB681B68BA689A6030
S31508000AF0FB681B687A68DA6000BF1437BD4680BC9D
S31508000B00704700BF80B485B000AF78607B681B680B
S31508000B10DBB2103B134AA2FB03231B09FB60124AF4
S31508000B20FB6813441B781A467B685A65FB68032BD7
S31508000B3009D97B681B6823F47F7323F003031A1D06
S31508000B407B681A6507E07B681B6823F47F7323F0CC
S31508000B5003037A6813657B681B6D18461437BD4610
S31508000B6080BC7047ABAAAAAAD892000880B489B0FC
S31508000B7000AF7860396000237B6100233B61002366
S31508000B80BB610023FB6171E10122FB6902FA03F3F1
S31508000B907B613B681A687B6913403B613A697B69EC
S31508000BA09A4240F060813B685B68022B03D03B6841
S31508000BB05B68122B23D1FB69DA087B68083253F885
S31508000BC02230BB61FB6903F007039B000F2202FA80
S31508000BD003F3DB43BA691340BB613B681A69FB69D7
S31508000BE003F007039B0002FA03F3BA691343BB61D8
S31508000BF0FB69DA087B680832B96943F822107B6812
S31508000C001B68BB61FB695B00032202FA03F3DB4343
S31508000C10BA691340BB613B685B6803F00302FB6972
S31508000C205B0002FA03F3BA691343BB617B68BA69CE
S31508000C301A603B685B68012B0BD03B685B68022B2C
S31508000C4007D03B685B68112B03D03B685B68122BA7
S31508000C5030D17B689B68BB61FB695B00032202FAA3
S31508000C6003F3DB43BA691340BB613B68DA68FB6987
S31508000C705B0002FA03F3BA691343BB617B68BA697E
S31508000C809A607B685B68BB610122FB6902FA03F321
S31508000C90DB43BA691340BB613B685B681B0903F019
S31508000CA00102FB6902FA03F3BA691343BB617B6865
S31508000CB0BA695A607B68DB68BB61FB695B00032223
S31508000CC002FA03F3DB43BA691340BB613B689A68CF
S31508000CD0FB695B0002FA03F3BA691343BB617B68DD
S31508000CE0BA69DA603B685B6803F08053002B00F052
S31508000CF0BA800023FB60624A614B5B6C43F4804315
S31508000D0053645F4B5B6C03F48043FB60FB685D4A8E
S31508000D10FB699B08023352F82330BB61FB6903F079
S31508000D2003039B000F2202FA03F3DB43BA6913405D
S31508000D30BB617B68544A934231D07B68534A9342DD
S31508000D402BD07B68524A934225D07B68514A9342FE
S31508000D501FD07B68504A934219D07B684F4A93420A
S31508000D6013D07B684E4A93420DD07B684D4A934216
S31508000D7007D07B684C4A934201D1082310E0092327
S31508000D800EE007230CE006230AE0052308E0042307
S31508000D9006E0032304E0022302E0012300E0002327
S31508000DA0FA6902F0030292009340BA691343BB61E1
S31508000DB03449FB699B080233BA6941F823203B4B47
S31508000DC01B68BB613B69DB43BA691340BB613B687F
S31508000DD05B6803F48033002B03D0BA693B6913437D
S31508000DE0BB61324ABB691360304B5B68BB613B69C8
S31508000DF0DB43BA691340BB613B685B6803F40033A5
S31508000E00002B03D0BA693B691343BB61274ABB6908
S31508000E105360264B9B68BB613B69DB43BA69134049
S31508000E20BB613B685B6803F48013002B03D0BA6987
S31508000E303B691343BB611D4ABB6993601B4BDB6867
S31508000E40BB613B69DB43BA691340BB613B685B68BE
S31508000E5003F40013002B03D0BA693B691343BB6143
S31508000E60124ABB69D360FB690133FB61FB690F2B2F
S31508000E707FF68AAE00BF2437BD4680BC704700BFE8
S31508000E8000380240003801400000024000040240D9
S31508000E9000080240000C0240001002400014024004
S31508000EA000180240001C024000200240003C01409D
S31508000EB080B485B000AF78600B467B807B681A6982
S31508000EC07B881340002B02D00123FB7301E000232B
S31508000ED0FB73FB7B18461437BD4680BC704700BFC2
S31508000EE080B483B000AF78600B467B8013467B7076
S31508000EF07B78002B03D07A887B689A6103E07B882D
S31508000F001A047B689A6100BF0C37BD4680BC7047DF
S31508000F1080B58EB000AF786000237B637B681B6862
S31508000F2003F00103002B65D0A74B9B6803F00C0365
S31508000F30042B0BD0A44B9B6803F00C03082B11D190
S31508000F40A14B5B6803F48003002B0BD09E4B1B68F8
S31508000F5003F40033002B4CD07B685B68002B48D128
S31508000F6001230EE2994B00221A70FFF755FA7863AF
S31508000F7008E0FFF751FA02467B6BD31A642B01D9B6
S31508000F800323FEE1904B1B6803F40033002BF0D1DA
S31508000F908E4A7B685B68DBB213707B685B68002BE4
S31508000FA013D0FFF739FA786308E0FFF735FA0246F7
S31508000FB07B6BD31A642B01D90323E2E1824B1B68AE
S31508000FC003F40033002BF0D014E0FFF725FA78631A
S31508000FD008E0FFF721FA02467B6BD31A642B01D986
S31508000FE00323CEE1784B1B6803F40033002BF0D1C2
S31508000FF000E000BF7B681B6803F00203002B77D074
S31508001000714B9B6803F00C03002B0BD06E4B9B684F
S3150800101003F00C03082B26D16B4B5B6803F48003A3
S31508001020002B20D1684B1B6803F00203002B05D068
S315080010307B68DB68012B01D00123A2E16248624B81
S315080010401B6823F0F8027B681969F8233B623B6A40
S3150800105093FAA3F3FB61FB69B3FA83F301FA03F38B
S315080010601343036044E07B68DB68002B2AD0584BA7
S3150800107001221A60FFF7D0F9786308E0FFF7CCF988
S3150800108002467B6BD31A642B01D9032379E14E4BB5
S315080010901B6803F00203002BF0D04B484A4B1B6831
S315080010A023F0F8027B681969F823FB62FB6A93FA56
S315080010B0A3F3BB61BB69B3FA83F301FA03F31343E2
S315080010C0036015E0424B00221A60FFF7A5F9786322
S315080010D008E0FFF7A1F902467B6BD31A642B01D906
S315080010E003234EE1384B1B6803F00203002BF0D1B3
S315080010F07B681B6803F00803002B30D07B685B69AC
S31508001100002B16D0334B01221A60FFF785F9786356
S3150800111008E0FFF781F902467B6BD31A642B01D9E5
S3150800112003232EE1284B5B6F03F00203002BF0D05C
S3150800113015E0284B00221A60FFF76EF9786308E07D
S31508001140FFF76AF902467B6BD31A642B01D903238E
S3150800115017E11D4B5B6F03F00203002BF0D17B6890
S315080011601B6803F00403002B7FD00023BB60164ADC
S31508001170154B1B6C43F080531364134B1B6C03F025
S315080011808053BB60BB68144A134B1B6843F48073D7
S315080011901360FFF741F9786308E0FFF73DF9024667
S315080011A07B6BD31A642B01D90323EAE00A4B1B682D
S315080011B003F48073002BF0D0084B00221A70FFF757
S315080011C02BF9786317E000BF003802400238024066
S315080011D000004742800E47420070004070380240C7
S315080011E0FFF71AF902467B6BD31A41F2883293420B
S315080011F001D90323C5E0654B1B6F03F00203002BDF
S31508001200EED1634A7B689B68DBB213707B689B6888
S31508001210002B15D0FFF700F978630AE0FFF7FCF812
S3150800122002467B6BD31A41F28832934201D90323D3
S31508001230A7E0564B1B6F03F00203002BEED014E019
S31508001240FFF7EAF878630AE0FFF7E6F802467B6BF1
S31508001250D31A41F28832934201D9032391E04B4BCA
S315080012601B6F03F00203002BEED17B689B69002BF2
S3150800127000F08680454B9B6803F00C03082B7DD055
S315080012807B689B69022B62D1424B00221A60FFF7EA
S31508001290C3F8786308E0FFF7BFF802467B6BD31AFA
S315080012A0642B01D903236CE0384B1B6803F00073E9
S315080012B0002BF0D135487B68DA697B681B6A1A43CC
S315080012C07B68596A47F6C073BB62BB6A93FAA3F395
S315080012D0FB60FB68B3FA83F301FA03F31A437B68EE
S315080012E09B6A5B08591E4FF440337B627B6A93FA0C
S315080012F0A3F33B613B69B3FA83F301FA03F31A4399
S315080013007B68D96A4FF070633B633B6B93FAA3F330
S315080013107B617B69B3FA83F301FA03F313434360F2
S315080013201C4B01221A60FFF777F8786308E0FFF78D
S3150800133073F802467B6BD31A642B01D9032320E08A
S31508001340124B1B6803F00073002BF0D018E0114B0A
S3150800135000221A60FFF760F8786308E0FFF75CF888
S3150800136002467B6BD31A642B01D9032309E0074B8A
S315080013701B6803F00073002BF0D101E0012300E0A5
S31508001380002318463837BD4680BD00BF00380240E6
S31508001390703802406000474280B584B000AF78607C
S315080013A039600023FB60A54B1B6803F007023B6806
S315080013B09A4280F08F80A14B3A68D2B21A709F4B3E
S315080013C01B6803F007023B689A4201D0012331E10A
S315080013D07B681B6803F00203002B08D09849984BDA
S315080013E09B6823F0F0027B689B6813438B607B68DD
S315080013F01B6803F00103002B00F0F9807B685B682B
S31508001400012B07D18E4B1B6803F40033002B15D133
S3150800141001230FE17B685B68022B07D1884B1B68A9
S3150800142003F00073002B09D1012303E1844B1B68E9
S3150800143003F00203002B01D10123FBE08049804B16
S315080014409B6823F003027B685B6813438B60FEF797
S31508001450E3FFF8607B685B68012B12D10AE0FEF7B0
S31508001460DBFF0246FB68D31A41F28832934201D960
S315080014700323DFE0724B9B6803F00C03042BEED1C9
S31508001480B5E07B685B68022B1DD10AE0FEF7C4FF56
S315080014900246FB68D31A41F28832934201D90323E4
S315080014A0C8E0674B9B6803F00C03082BEED19EE05F
S315080014B0FEF7B2FF0246FB68D31A41F2883293421E
S315080014C001D90323B6E05E4B9B6803F00C03002B9F
S315080014D0EED18CE07B681B6803F00203002B08D072
S315080014E05749574B9B6823F0F0027B689B68134368
S315080014F08B607B681B6803F00103002B6AD07B684E
S315080015005B68012B07D14E4B1B6803F40033002B95
S3150800151015D101238EE07B685B68022B07D1484B07
S315080015201B6803F00073002B09D1012382E0444BAA
S315080015301B6803F00203002B01D101237AE040491E
S315080015403F4B9B6823F003027B685B6813438B6001
S31508001550FEF762FFF8607B685B68012B12D10AE030
S31508001560FEF75AFF0246FB68D31A41F288329342C5
S3150800157001D903235EE0324B9B6803F00C03042B6E
S31508001580EED127E07B685B68022B1DD10AE0FEF7E7
S3150800159043FF0246FB68D31A41F28832934201D9C7
S315080015A0032347E0264B9B6803F00C03082BEED178
S315080015B010E0FEF731FF0246FB68D31A41F2883283
S315080015C0934201D9032335E01D4B9B6803F00C03B6
S315080015D0002BEED1194B3A68D2B21A70174B1B681A
S315080015E003F007023B689A4201D0012322E07B6898
S315080015F01B6803F00403002B08D01149104B9B68A5
S3150800160023F4E0527B68DB6813438B607B681B68B6
S3150800161003F00803002B09D00949094B9B6823F4FA
S3150800162060427B681B69DB0013438B600020FEF772
S31508001630C9FE002318461037BD4680BD003C02404F
S315080016400038024080B48BB000AF0023FB61002352
S315080016507B620023BB6100233B62364B9B6803F029
S315080016600C03042B06D0082B07D0002B58D1324B7D
S315080016703B6258E0314B3B6255E02E4B5B6803F00A
S315080016803F03FB612B4B5B6803F48003002B17D0E9
S315080016902A4AFB69B2FBF3F2264B596847F6C07330
S315080016A00B4047F6C071F960F96891FAA1F1B96083
S315080016B0B968B1FA81F1CB4003FB02F37B6216E00D
S315080016C01D4AFB69B2FBF3F21A4B596847F6C07319
S315080016D00B4047F6C0717961796991FAA1F1796091
S315080016E07968B1FA81F1CB4003FB02F37B62114BB7
S315080016F05B6803F440324FF440333B613B6993FA2D
S31508001700A3F33B603B68B3FA83F322FA03F301338E
S315080017105B00BB617A6ABB69B2FBF3F33B6202E02A
S31508001720054B3B6200BF3B6A18462C37BD4680BC5A
S31508001730704700BF003802400024F40040787D015D
S3150800174080B582B000AFFFF77DFF01460D4B9B6861
S3150800175003F0F002F0237B607B6893FAA3F33B6007
S315080017603B68B3FA83F322FA03F3074AD35C21FAF8
S3150800177003F3064A1360054B1B6818460837BD462F
S3150800178080BD00BF00380240E09200080800002033
S3150800179080B582B000AFFFF7D3FF01460B4B9B68BD
S315080017A003F4E0524FF4E0537B607B6893FAA3F3AB
S315080017B03B603B68B3FA83F322FA03F3044AD35C2B
S315080017C021FA03F318460837BD4680BD00380240A3
S315080017D0E092000880B582B000AFFFF7B1FF01467E
S315080017E00B4B9B6803F460424FF460437B607B6855
S315080017F093FAA3F33B603B68B3FA83F322FA03F345
S31508001800044AD35C21FA03F318460837BD4680BD5F
S3150800181000380240E092000880B582B000AF7860D8
S315080018207B68002B01D101233BE07B6893F83930B4
S31508001830DBB2002B06D17B68002283F83820786853
S3150800184004F010FF7B68022283F839207B681B6846
S315080018507A681268D26822F40052DA60786800F072
S31508001860E7FB7B681B687A681268126922F4904263
S315080018701A617B681B687A681268526922F02A0224
S315080018805A617B681B687A681268D26842F400520B
S31508001890DA607B680022DA637B68012283F83920E4
S315080018A0002318460837BD4680BD00BF80B586B000
S315080018B000AFF860B9601346FB8000237B61FB68C4
S315080018C093F83930DBB27B617B69012B02D07B69E7
S315080018D0222B5AD1BB68002B02D0FB88002B01D1E2
S315080018E0012353E0FB6893F83830012B01D102231A
S315080018F04CE0FB68012283F83820BA68FB681A6254
S31508001900FB68FA889A84FB68FA88DA84FB680022FE
S31508001910DA63FB6893F83930DBB2222B04D1FB6813
S31508001920322283F8392003E0FB68122283F8392033
S31508001930FB681B6B174ADA63FB681B6B164A1A644B
S31508001940FB681B6B154A9A6407F108033B61FB6841
S31508001950186B3B691968FB681B6804331A46FB88D1
S31508001960FEF7F4FEFB681B686FF040021A60FB681E
S315080019701B68FA681268526942F080025A61FB686D
S31508001980002283F83820002300E00223184618377F
S31508001990BD4680BDE11C0008351D0008CD1D0008A8
S315080019A080B586B000AFF860B9601346FB800023A7
S315080019B07B61FB6893F83930DBB27B617B69012B6D
S315080019C002D07B69122B52D1BB68002B02D0FB8850
S315080019D0002B01D101234BE0FB6893F83830012B2B
S315080019E001D1022344E0FB68012283F83820BA6853
S315080019F0FB689A62FB68FA889A85FB680022DA63B4
S31508001A00FB6893F83930DBB2122B04D1FB6832221B
S31508001A1083F8392003E0FB68222283F83920FB6823
S31508001A205B6B154ADA63FB685B6B144A1A64FB68DE
S31508001A305B6B134A9A6407F108033B61FB68586BB2
S31508001A40FB681B68043319463B691A68FB88FEF76E
S31508001A507DFEFB681B68FA681268526942F040020C
S31508001A605A61FB68002283F83820002300E002232D
S31508001A7018461837BD4680BD511D0008B11D00081F
S31508001A80CD1D000880B588B000AF78600023FB61E3
S31508001A900023BB617B681B681B6803F00103002BEE
S31508001AA014BF01230023DBB2FB617B681B68DB687C
S31508001AB003F48073BB61FB69002B13D0BB69002B51
S31508001AC010D000237B617B681B681B687B617B6881
S31508001AD01B685B687B617B697B68DB6B43F0010293
S31508001AE07B68DA637B681B681B6803F00203002BBC
S31508001AF014BF01230023DBB2FB617B681B685B69AB
S31508001B0003F00103BB61FB69002B13D0BB69002BF3
S31508001B1010D000233B617B681B681B683B617B68B0
S31508001B201B685B683B613B697B68DB6B43F00402BF
S31508001B307B68DA637B681B681B6803F00403002B69
S31508001B4014BF01230023DBB2FB617B681B685B695A
S31508001B5003F00103BB61FB69002B13D0BB69002BA3
S31508001B6010D00023FB607B681B681B68FB607B68E2
S31508001B701B685B68FB60FB687B68DB6B43F00202F3
S31508001B807B68DA637B681B681B6803F00803002B15
S31508001B9014BF01230023DBB2FB617B681B685B690A
S31508001BA003F00103BB61FB69002B13D0BB69002B53
S31508001BB010D00023BB607B681B681B68BB607B6812
S31508001BC01B685B68BB60BB687B68DB6B43F008021D
S31508001BD07B68DA637B681B681B6803F02003002BAD
S31508001BE014BF01230023DBB2FB617B681B68DB683B
S31508001BF003F02003BB61FB69002B05D0BB69002BF2
S31508001C0002D0786800F080F97B681B681B6803F0CF
S31508001C108003002B14BF01230023DBB2FB617B6822
S31508001C201B68DB6803F08003BB61FB69002B05D0EA
S31508001C30BB69002B02D0786800F0E6F87B681B6861
S31508001C401B6803F04003002B14BF01230023DBB2FB
S31508001C50FB617B681B68DB6803F04003BB61FB69BB
S31508001C60002B05D0BB69002B02D0786800F028F954
S31508001C707B68DB6B002B06D07B68012283F8392052
S31508001C80786800F023F800BF2037BD4680BD00BF46
S31508001C9080B483B000AF786000BF0C37BD4680BC07
S31508001CA0704700BF80B483B000AF786000BF0C37C0
S31508001CB0BD4680BC704700BF80B483B000AF786073
S31508001CC000BF0C37BD4680BC704700BF80B483B0E8
S31508001CD000AF786000BF0C37BD4680BC704700BFB8
S31508001CE080B584B000AF78607B689B6BFB607B68CF
S31508001CF01B681B6803F48073002B13D1FB68002252
S31508001D00DA84FB681B68FA681268526922F0800256
S31508001D105A61FB681B68FA681268D26842F040028A
S31508001D20DA6002E0F868FFF7B3FF00BF1037BD4678
S31508001D3080BD00BF80B584B000AF78607B689B6BC0
S31508001D40FB60F868FFF7AEFF00BF1037BD4680BDE1
S31508001D5080B584B000AF78607B689B6BFB607B685E
S31508001D601B681B6803F48073002B19D1FB680022DB
S31508001D70DA85FB681B68FA681268526922F0400225
S31508001D805A61FB6893F83930DBB2322B04D1FB6811
S31508001D90122283F8392003E0FB68012283F83920F0
S31508001DA0F86805F045F900BF1037BD4680BD00BF8D
S31508001DB080B584B000AF78607B689B6BFB60F86881
S31508001DC0FFF77AFF00BF1037BD4680BD80B584B0E7
S31508001DD000AF78607B689B6BFB60FB680022DA8546
S31508001DE0FB680022DA84FB68012283F83920FB6845
S31508001DF0DB6B43F01002FB68DA63F868FFF766FFEF
S31508001E0000BF1037BD4680BD80B485B000AF78608E
S31508001E100023FB607B6893F83930DBB2FB60FB6814
S31508001E20122B02D0FB68322B43D17B689B68B3F533
S31508001E30805F19D17B681B6ABB607B681B68BA68C0
S31508001E401288C2F308025A607B681B69002B05D109
S31508001E507B681B6A9A1C7B681A620EE07B681B6AA1
S31508001E605A1C7B681A6208E07B681A687B681B6ADA
S31508001E70581C796808621B7853607B68DB8C013BC9
S31508001E809AB27B68DA847B68DB8C002B0FD17B687F
S31508001E901B687A681268D26822F08002DA607B686A
S31508001EA01B687A681268D26842F04002DA6000233A
S31508001EB000E0022318461437BD4680BC704700BFB1
S31508001EC080B582B000AF78607B681B687A68126854
S31508001ED0D26822F04002DA607B6893F83930DBB2C8
S31508001EE0322B04D17B68222283F8392003E07B68F1
S31508001EF0012283F839207868FFF7CAFE00231846BE
S31508001F000837BD4680BD00BF80B584B000AF786095
S31508001F100023FB607B6893F83930DBB2FB60FB6813
S31508001F20222B02D0FB68322B7CD17B689B68B3F5E9
S31508001F30805F23D17B689B6ABB607B681B69002B2B
S31508001F400ED17B681B685B689BB2C3F308039AB221
S31508001F50BB681A807B689B6A9A1C7B689A6229E030
S31508001F607B681B685B689BB2DBB29AB2BB681A8057
S31508001F707B689B6A5A1C7B689A621BE07B681B69B4
S31508001F80002B0AD17B689B6A591C7A6891627A6829
S31508001F9012685268D2B21A700CE07B689B6A591CA8
S31508001FA07A6891627A6812685268D2B202F07F0241
S31508001FB0D2B21A707B68DB8D013B9AB27B68DA85F0
S31508001FC07B68DB8D002B2BD17B681B687A681268CF
S31508001FD0D26822F02002DA607B6893F83930DBB2E7
S31508001FE0322B04D17B68122283F8392013E07B68F0
S31508001FF01B687A681268D26822F48072DA607B6895
S315080020001B687A681268526922F001025A617B6875
S31508002010012283F83920786805F00AF8002302E0DF
S31508002020002300E0022318461037BD4680BD00BFD6
S31508002030F0B585B000AF78600023FB607B681B684D
S315080020401B69FB60FB6823F44053FB607B68DB6815
S31508002050FA681343FB607B681B68FA681A617B6839
S315080020601B68DB68FB60FB6823F4164323F00C034C
S31508002070FB607B689A687B681B691A437B685B69A7
S315080020801A437B68DB691343FA681343FB607B6872
S315080020901B68FA68DA607B681B685B69FB60FB682B
S315080020A023F44073FB607B689B69FA681343FB6003
S315080020B07B681B68FA685A617B68DB69B3F5004F71
S315080020C040F08C807B681B688C4A934204D07B68FE
S315080020D01B688B4A934240D17B681C68FFF77AFBE2
S315080020E0024613469B0013449A001A447B685B68B1
S315080020F05B00B2FBF3F3834AA2FB03235B091D01D2
S31508002100FFF768FB024613469B0013449A001A44DD
S315080021107B685B685B00B2FBF3F6FFF75BFB024686
S3150800212013469B0013449A001A447B685B685B005D
S31508002130B2FBF3F3734AA2FB03235B09642202FB97
S3150800214003F3F31A1B0132336E4AA2FB03235B091E
S3150800215003F00F032B43A360CCE07B681C68FFF7F2
S3150800216017FB024613469B0013449A001A447B68E1
S315080021705B685B00B2FBF3F3624AA2FB03235B09CD
S315080021801D01FFF705FB024613469B0013449A0000
S315080021901A447B685B685B00B2FBF3F6FFF7F8FA54
S315080021A0024613469B0013449A001A447B685B68F0
S315080021B05B00B2FBF3F3534AA2FB03235B096422D9
S315080021C002FB03F3F31A1B0132334E4AA2FB032325
S315080021D05B0903F00F032B43A3608BE07B681B6846
S315080021E0464A934204D07B681B68454A934240D1CD
S315080021F07B681C68FFF7EEFA024613469B001344F9
S315080022009A001A447B685B689B00B2FBF3F33D4A6D
S31508002210A2FB03235B091D01FFF7DCFA02461346FE
S315080022209B0013449A001A447B685B689B00B2FBC8
S31508002230F3F6FFF7CFFA024613469B0013449A00BB
S315080022401A447B685B689B00B2FBF3F32D4AA2FB3A
S3150800225003235B09642202FB03F3F31A1B013233DF
S31508002260284AA2FB03235B0903F00F032B43A36051
S3150800227040E07B681C68FFF78BFA024613469B0012
S3150800228013449A001A447B685B689B00B2FBF3F31D
S315080022901C4AA2FB03235B091D01FFF779FA0246D4
S315080022A013469B0013449A001A447B685B689B009C
S315080022B0B2FBF3F6FFF76CFA024613469B0013448B
S315080022C09A001A447B685B689B00B2FBF3F30D4ADD
S315080022D0A2FB03235B09642202FB03F3F31A1B0127
S315080022E03233084AA2FB03235B0903F00F032B438F
S315080022F0A360FFE700BF1437BD46F0BD00100140DC
S31508002300001401401F85EB5180B582B000AF78609C
S3150800231000F06EF880B584B000AF7860144B1B6887
S31508002320002B02D1124B134A1A60114B1B68FB6033
S315080023307B68033323F003037B600D4B1A687B68C5
S3150800234013440D4A934207D906F06EFB02460C2346
S3150800235013604FF0FF3306E0054B1A687B68134499
S31508002360034A1360FB6818461037BD4680BD00BF98
S315080023707C0000203826002000FC002080B483B0B2
S3150800238000AF786039607B6801221A603B68034AAF
S315080023901A6000BF0C37BD4680BC7047000000209D
S315080023A080B500AF00F02AF8024B034A9A6000BFD6
S315080023B080BD00BF00ED00E00000000880B500AF5A
S315080023C000F04AF800BF80BD80B400AFBFF34F8F5E
S315080023D00549054BDB6803F4E062044B1343CB6005
S315080023E0BFF34F8F00BFFDE700ED00E00400FA05DC
S315080023F080B500AFFFF7E8FFFEE7000080B400AF46
S31508002400124A124B1B6843F0010313600F4B00225C
S315080024109A600E4A0D4B1B6823F0847323F48033AD
S3150800242013600A4B0A4A5A60084A084B1B6823F489
S3150800243080231360054B0022DA60064B4FF00062DA
S315080024409A6000BFBD4680BC704700BF0038024096
S315080024501030002400ED00E080B487B000AF002300
S315080024603B6100237B610223FB600023BB600223E0
S315080024707B60324B9B6803F00C033B613B69042B82
S3150800248007D0082B09D0002B3FD12D4B2D4A1A60B7
S315080024903FE02B4B2C4A1A603BE0284B5B6803F461
S315080024A080039B0DBB60254B5B6803F03F037B6095
S315080024B0BB68002B0DD0244A7B68B2FBF3F21F4B96
S315080024C0596847F6C0730B409B0903FB02F37B610F
S315080024D00CE01C4A7B68B2FBF3F2184B596847F6C6
S315080024E0C0730B409B0903FB02F37B61134B5B68CC
S315080024F003F440331B0C01335B00FB607A69FB680D
S31508002500B2FBF3F30E4A136003E00D4B0D4A1A6053
S3150800251000BF0A4B9B6803F0F0031B090B4AD35C08
S315080025203B61074B1A683B6922FA03F3044A1360B6
S3150800253000BF1C37BD4680BC704700BF003802404C
S31508002540080000200024F40040787D01F09200087D
S3150800255098B500AFFDF760FF034601334FF47A7272
S3150800256002FB03F2054B9B680549A1FB03139B0974
S31508002570D31A4FF000041846214698BD10E000E033
S315080025808988888890B585B000AF7860FFF7E0FF46
S315080025900A4601467B684FF000045B1844EB0204C8
S315080025A0C7E9023400BFFFF7D3FF0A460146D7E959
S315080025B00234A24208BF9942F5D300BF1437BD467C
S315080025C090BD00BF80B400AFBFF34F8F0549054BE0
S315080025D0DB6803F4E062044B1343CB60BFF34F8F11
S315080025E000BFFDE700ED00E00400FA0598B500AF6E
S315080025F002210C48FEF75CFC0346002B01D102249D
S3150800260000E0002410210748FEF752FC0346002B81
S315080026100CBF01230023DBB21BB223431BB29BB2C0
S31508002620184698BD0000024080B500AF4021064814
S31508002630FEF73EFC0346002B0CBF01230023DBB24A
S315080026409BB2184680BD00BF0000024080B500AFAF
S3150800265020210648FEF72CFC0346002B0CBF01235D
S315080026600023DBB29BB2184680BD00BF00000240C3
S3150800267080B500AF80210648FEF71AFC0346002BFA
S315080026800CBF01230023DBB29BB2184680BD00BFF6
S315080026900000024098B500AF4FF4947200213A4802
S315080026A006F0D7F9384A4FF00003384CC2E902342D
S315080026B0354A4FF00003354CC2E90434324B012247
S315080026C0DA70314B002283F879202F4B0022A3F8C9
S315080026D07A20802200212E4806F0BBF92A4B0022D8
S315080026E0A3F80021284B002283F87820264A4FF0C9
S315080026F000034FF00004C2E90C34234A4FF00003EC
S315080027004FF00004C2E90E341F4A4FF000034FF0A1
S315080027100004C2E910341C4A4FF000034FF00004CD
S31508002720C2E91234184A4FF000034FF00004C2E918
S315080027301434154A4FF000034FF00004C2E916346A
S31508002740114A4FF000034FF00004C2E918340E4A4C
S315080027504FF000034FF00004C2E91A340A4A4FF05A
S3150800276000034FF00004C2E91C340A4B00221A7019
S31508002770094B00221A70094B00221A70084B0022D6
S315080027801A6000BF98BD00BF880000200040BF4007
S3150800279008010020B0010020B1010020C424002057
S315080027A01825002080B400AF034B00221A6000BF32
S315080027B0BD4680BC704700BF1825002000000000F9
S315080027C090B583B000AF284BB3F87A30184605F0B9
S315080027D063FA254B03F10804D4E900341A46234664
S315080027E005F0C0FA03460C461846214618A3D3E955
S315080027F0002305F0E1FB03460C461846214605F082
S3150800280089FD03467B60786805F036FA12A3D3E99A
S31508002810002305F037FD0346002B00D113E0124BC9
S31508002820B3F87A30184605F037FA03460C461A46C6
S3150800283023460BA1D1E9000105F0BEFB03460C4671
S31508002840094AC2E9023400BF0C37BD4690BD00BF35
S315080028506666666666663940000000000070C74016
S3150800286000000000809A12418800002080B582B0DE
S3150800287000AF24E0FB790A2B0AD1164B1B68002B04
S3150800288002DD00F02DF821E0134804F0DFFC1DE01E
S31508002890104B1B6801334F2B05DD022003F02CFA81
S315080028A000F01EF812E0FB79202B08D9094B1B68AB
S315080028B05A1C08490A6097F90710084AD15404F0C7
S315080028C077FB0346FB71FB79FF2BD3D100BF083793
S315080028D0BD4680BD1825002000930008C8240020A6
S315080028E090B583B000AF00233B600023FB71834B98
S315080028F01B68834A0021D154804B00221A60814B01
S315080029001B78DBB2002B17D003F04CFA03460C46B3
S315080029107D4AC2E9063403F05BFA03460C467A4A56
S31508002920C2E9083403F06CFA03460C46764AC2E953
S315080029300A34744B00221A70714B93F90030402BFD
S3150800294003D1724804F098FCD0E06D4B93F900303F
S31508002950242B0FD103F0E4FE0346184604F076FC58
S315080029606B4804F073FC03F015FF0346184604F0A1
S315080029706DFCBBE003F0E0F90346002B30D0654858
S3150800298004F064FC03F0CCF903463B603B68082B73
S3150800299003D1614804F05AFC4DE03B68072B03D18C
S315080029A05E4804F053FC46E03B68012B03D15C48C3
S315080029B004F04CFC3FE03B68022B03D1594804F075
S315080029C045FC38E03B68032B03D1574804F03EFC2E
S315080029D031E0564804F03AFC386804F0A7FC2AE0CF
S315080029E0474B93F900303F2B02D10123FB7122E0BC
S315080029F0434800F0BDF803463B603B68002B1AD0FD
S31508002A003B68042B03D14A4804F020FC13E03B68DA
S31508002A10052B03D1474804F019FC0CE03B68062B4C
S31508002A2003D1454804F012FC05E0444804F00EFCC6
S31508002A30386804F07BFCFFF7F7FD0346002B02D04D
S31508002A403F4804F003FCFFF701FE0346002B02D0C3
S31508002A503C4804F0FBFBFFF70BFE0346002B02D0B5
S31508002A60394804F0F3FBFFF7C1FD034603F0020300
S31508002A70002B02D0354804F0E9FBFFF7B7FD034603
S31508002A8003F00103002B02D0314804F0DFFBFB7989
S31508002A90002B20D02F4804F0D9FB03F083F9034616
S31508002AA00C461846214605F055FC0346184604F020
S31508002AB053FC294804F0CAFB03F08AF903460C467E
S31508002AC01846214605F046FC0346184604F044FC21
S31508002AD0224804F0D1FB224B1B78DBB2002B05D031
S31508002AE01F4B00221A701F4804F0B0FB1E4804F062
S31508002AF0ADFB00BF0C37BD4690BD00BF18250020B2
S31508002B00C8240020B0010020880000200493000893
S31508002B10189300081C9300082093000824930008C3
S31508002B20289300082C930008309300083493000873
S31508002B30389300083C930008409300084493000823
S31508002B40489300084C9300085093000854930008D3
S31508002B50589300085C930008609300086493000883
S31508002B60B10100206C9300080093000800000000E3
S31508002B702DE9F04FB9B006AFF863002387F889301E
S31508002B80002387F8BF3007F1500200231360536013
S31508002B909360D360136153614FF00003DB4CC7E9C0
S31508002BA02C344FF0FF33C7F8AC304FF000034FF02A
S31508002BB00004C7E928340023C7F89C300023C7F867
S31508002BC09830002387F89730D14A00231370B1E272
S31508002BD0D7E920341846214604F0B4FD03460C46CE
S31508002BE01846214605F06EFB0346C7F8903097F95C
S31508002BF08830472B03D04D2B00F0958196E2D7F805
S31508002C0090305B2B00F28A8101A252F823F000BFB4
S31508002C10812D0008912D00081D2F00081D2F000882
S31508002C20A12D00081D2F00081D2F00081D2F0008C4
S31508002C30A92D00081D2F0008C72E0008CF2E000852
S31508002C401D2F00081D2F00081D2F00081D2F000826
S31508002C501D2F00081D2F00081D2F00081D2F000816
S31508002C60D72E0008DF2E00081D2F00081D2F00088C
S31508002C701D2F00081D2F00081D2F00081D2F0008F6
S31508002C801D2F00081D2F0008E72E00081D2F00081D
S31508002C901D2F00081D2F00081D2F00081D2F0008D6
S31508002CA01D2F00081D2F00081D2F00081D2F0008C6
S31508002CB01D2F00081D2F00081D2F00081D2F0008B6
S31508002CC01D2F00081D2F00081D2F00081D2F0008A6
S31508002CD01D2F00081D2F00081D2F00081D2F000896
S31508002CE01D2F00081D2F0008EF2E0008F92E0008DA
S31508002CF01D2F00081D2F00081D2F00081D2F000876
S31508002D001D2F00081D2F00081D2F00081D2F000865
S31508002D101D2F00081D2F00081D2F00081D2F000855
S31508002D201D2F00081D2F00081D2F00081D2F000845
S31508002D301D2F00081D2F00081D2F00081D2F000835
S31508002D401D2F00081D2F00081D2F00081D2F000825
S31508002D501D2F00081D2F00081D2F00081D2F000815
S31508002D601D2F00081D2F00081D2F00081D2F000805
S31508002D701D2F00081D2F0008032F0008152F000817
S31508002D80012387F8BF30624A97F8BF305370C9E00D
S31508002D90022387F8BF305E4A97F8BF305370C1E008
S31508002DA0032387F8BF30BDE097F889301A46FB6BD6
S31508002DB0134493F90030442B40F0818097F889300A
S31508002DC00133DBB287F88930F86B05F07EFE0246E0
S31508002DD097F88930D31AC7F88C304D4BB3F80031C1
S31508002DE01A46D7F88C301344B3F5806F03D2D7F858
S31508002DF08C30462B07D9464B01221A70444B1B7858
S31508002E00184602F079FF0023A7F8943042E0404BB9
S31508002E10B3F800311A46B7F894301344002B00DA99
S31508002E200733DB1087F88B30394BB3F80031DAB249
S31508002E30B7F89430DBB21344DBB203F0070387F824
S31508002E408A3097F889301A46B7F8943013441A46E8
S31508002E50FB6B134493F90030312B16D197F88B305E
S31508002E6097F88B202A490A4492F8802051B297F89D
S31508002E708A20012000FA02F252B20A4352B2D1B2B3
S31508002E80234A13440A4683F88020B7F8943001335E
S31508002E90A7F89430B7F89420D7F88C309A42B6D36E
S31508002EA01B4BB3F80021D7F88C309BB213449AB267
S31508002EB0174BA3F80021164B1B7800F0B7BE0C235E
S31508002EC087F8BF302EE0052387F8BF302AE00623AF
S31508002ED087F8BF3026E00E4A0123937022E00C4A99
S31508002EE0002393701EE0042387F8BF301AE0084ACF
S31508002EF0002382F8783015E0054A012382F87830F5
S31508002F0010E0034A0123D3700CE000BF0000F0BFB5
S31508002F1088000020CE4A0023D37003E0CC4A06235B
S31508002F20137003E102E1D7F89030013B622B00F2FF
S31508002F30F88001A252F823F0C530000823310008B2
S31508002F40CD300008CD300008DD30000823310008F8
S31508002F5023310008233100082331000823310008F3
S31508002F6023310008233100082331000823310008E3
S31508002F7023310008233100082331000823310008D3
S31508002F8023310008233100082331000823310008C3
S31508002F9023310008233100082331000823310008B3
S31508002FA023310008233100082331000823310008A3
S31508002FB02331000823310008233100082331000893
S31508002FC02331000823310008233100082331000883
S31508002FD02331000823310008233100082331000873
S31508002FE02331000823310008233100082331000863
S31508002FF02331000823310008233100082331000853
S315080030002331000823310008233100082331000842
S315080030102331000823310008233100082331000832
S315080030202331000823310008233100082331000822
S315080030302331000823310008233100082331000812
S315080030402331000823310008233100082331000802
S3150800305023310008233100082331000823310008F2
S3150800306023310008233100082331000823310008E2
S3150800307023310008233100082331000823310008D2
S3150800308023310008233100082331000823310008C2
S31508003090233100082331000823310008E7300008EF
S315080030A0EF300008F7300008FF3000080731000845
S315080030B00F310008173100082331000823310008B2
S315080030C01F310008152387F8BF302EE00D2387F837
S315080030D0BF305F4A0023A2F87A3026E05C4A002314
S315080030E0A2F87A3021E00F2387F8BF301DE01023BD
S315080030F087F8BF3019E0112387F8BF3015E012238F
S3150800310087F8BF3011E0132387F8BF300DE014238A
S3150800311087F8BF3009E0162387F8BF3005E0FFF7C8
S3150800312051FA4B4A06231370FFE700BF484B1B783A
S31508003130002B0DD107F1890307F1800107F18800FB
S31508003140FA6B00F095FD0346002B7FF441AD00E0D5
S3150800315000BF3F4B1B78002B03D03D4B1B7800F07C
S3150800316065BD002387F8893007F1680318223949B5
S31508003170184605F063FC1FE1354B9B78002B0BD0F6
S31508003180D7E9200130A3D3E9002304F0EBFD034679
S315080031900C46C7E9303403E0D7E92034C7E93034B0
S315080031A097F98830463B142B00F2068101A252F8A3
S315080031B023F000BF09320008B9330008B933000804
S315080031C0B9330008B9330008B93300087B3300085F
S315080031D0B93300089B330008B93300080D330008DB
S315080031E0B9330008A53300083F330008B93300088F
S315080031F0B9330008B9330008B93300085932000852
S3150800320059320008593200084FF000024FF0000307
S31508003210D7E9300105F022F80346002B02D00C4A04
S31508003220042313700A4B5B78012B05D1084AD7E9AA
S315080032303034C2E90434BFE0054AD7E93034C2E97C
S315080032400234FFF7BDFAB7E0666666666666394019
S3150800325088000020A000002097F8BF30162B11D157
S3150800326097F98830A3F15805D7E92034184621463E
S3150800327005F070F80246AB0007F1C8010B4443F8A5
S31508003280842C99E097F8BF300C2B2ED09E4BDB7818
S31508003290002B0DD097F98830583BDB0007F1C802A0
S315080032A01344A3F16002D7E93034C2E900341CE0C4
S315080032B097F98830A3F1580597F98830583BDB0011
S315080032C007F1C8021344603BD3E90001D7E930236C
S315080032D004F096FB03460C4619462246EB0007F116
S315080032E0C8000344603BC3E9001297F98830583B8D
S315080032F0DB0007F1C8021344A3F17802D7E930349A
S31508003300C2E90034012387F8973055E097F8BF30B3
S31508003310052B0FD1D7E920341846214604F012FAB6
S3150800332003460C461846214604F0CCFF0346C7F868
S315080033309C3041E0D7E92034C7E928343CE097F8C7
S31508003340BF300D2B0DD1D7E920341846214604F09D
S31508003350E1FF03469BB26C4AA2F87A30FFF730FACF
S315080033602AE0D7E920341846214604F0D3FF03465D
S31508003370DBB2654A82F879301EE0D7E92034184670
S31508003380214604F0DFF903460C461846214604F0A8
S3150800339099FF0346C7F898300EE0D7E92034C7E905
S315080033A02C3409E0D7E920341846214604F08AFF70
S315080033B00346C7F8AC3000BF07F1890307F180015F
S315080033C007F18800FA6B00F053FC0346002B7FF4E4
S315080033D0D3AE4D4B1B78002B03D04B4B1B7800F01C
S315080033E025BC97F8BF30013B152B00F2168401A2C5
S315080033F052F823F04D3400080D350008AF370008A1
S31508003400C93700083D390008B13B00081B3C0008D5
S315080034101B3C00081B3C00081B3C00081B3C000822
S31508003420CF3500081B3C00081B3C0008D93B0008A8
S31508003430E73B0008F53B0008FB3B0008013C000899
S31508003440073C0008D13B00081B3C000897F897305A
S31508003450002B00F0DB83D7E91A012B4B93F8783061
S315080034601A4613465B001344274A0633DB00134407
S3150800347018CB1A46234604F0C3FA03460C461D46E3
S315080034802646D7E91C01204B93F878301A4613468E
S315080034905B00134401331C4A0633DB00134418CB84
S315080034A01A46234604F0ACFA03460C469846A1464B
S315080034B0D7E91E01144B93F878301A4613465B0079
S315080034C013440233104A0633DB00134418CB1A465A
S315080034D0234604F095FA03460C46194622460A4B3B
S315080034E003F11004D4E9003400200590002004906C
S315080034F0CDE90234CDE9001242464B46284631460C
S3150800350001F038FE82E300BF8800002097F8973064
S31508003510002B00F07D83D7E91A01A94B93F8783080
S315080035201A4613465B001344A54A0633DB001344C8
S3150800353018CB1A46234604F063FA03460C46984607
S31508003540A146D7E91C019E4B93F878301A461346D4
S315080035505B00134401339A4A0633DB00134418CB45
S315080035601A46234604F04CFA03460C469A46A346E6
S31508003570D7E91E01924B93F878301A4613465B003A
S31508003580134402338E4A0633DB00134418CB1A461B
S31508003590234604F035FA03460C4619462246884B5C
S315080035A003F10804D4E90034854890F87900844D7D
S315080035B0B5F87A5005950490CDE90234CDE90012A4
S315080035C052465B464046494601F0D4FD20E397F84B
S315080035D09730002B21D0D7E91434794A02F588723E
S315080035E0C2E90034D7E91634754A02F58C72C2E985
S315080035F00034D7E918014FF000024FF0000304F039
S3150800360023FE0346002B04D06D4B012283F80321C9
S3150800361003E06B4B002283F803214FF000024FF0C2
S315080036200003D7E9280104F02DFE0346002B06D037
S31508003630634B03F58472D7E92834C2E90034D7F816
S31508003640AC30002B05DBD7F8AC30DAB25C4B83F82C
S3150800365020214FF000024FF00003D7E92C0104F0B7
S3150800366007FE0346002B00D1D7E2554BB3F80031CD
S31508003670002B00F09280D7E91A01514B93F8783065
S315080036801A4613465B0013444D4A0633DB001344BF
S3150800369018CB1A46234604F0B3F903460C46984657
S315080036A0A146D7E91C01464B93F878301A461346CB
S315080036B05B0013440133424A0633DB00134418CB3C
S315080036C01A46234604F09CF903460C469A46A34636
S315080036D0D7E91E013A4B93F878301A4613465B0031
S315080036E013440233364A0633DB00134418CB1A4612
S315080036F0234604F085F903460C4619462246304B04
S3150800370003F10804D4E900342D4890F879002D4DCA
S3150800371005950490CDE90234CDE9001252465B4680
S315080037204046494601F048F8254B03F58873D3E926
S3150800373000014FF000024FF0000304F07BFD034642
S31508003740002B0ED1D7E91C011D4B03F5847318CB4A
S315080037501A46234604F054F903460C46C7E91C34B6
S315080037601BE0174B03F58C73D3E900014FF00002F9
S315080037704FF0000304F05EFD0346002B0DD1D7E998
S315080037801A010F4B03F5847318CB1A46234604F027
S3150800379035F903460C46C7E91A34094B0022A3F843
S315080037A0002180220021074805F053F935E2044B31
S315080037B093F879301A46D7E9280101F0FBFC2CE288
S315080037C0880000200801002002F0DCFE034683F092
S315080037D00103DBB2002B40F01D8218220021B348FA
S315080037E005F037F907F1680318220021184605F095
S315080037F030F9AF4B03F16004D4E900343B6384F03D
S3150800380000437B63AA4B03F16804D4E90034BB6226
S3150800381084F00043FB62A64B03F17004D4E900343C
S31508003820984684F00049CDE90089D7E90A23D7E903
S315080038300C0101F071FD9E4B03F16004D4E90034DC
S315080038403B6284F000437B62994B03F16804D4E938
S315080038500034BB6184F00043FB61954B03F17004AF
S31508003860D4E900343B6184F000437B61D7E9043432
S31508003870CDE90034D7E90623D7E9080102F0DCFAD6
S315080038808B4B002283F87820894B03F16004D4E936
S315080038900034BB6084F00043FB60D7E90234C7E913
S315080038A01A34834B03F16804D4E900343B6084F08E
S315080038B000437B60D7E90034C7E91C347C4B03F12D
S315080038C07004D4E900349A4684F0004BC7E91EAB6D
S315080038D0D7E91A014FF00002764B04F091F8034637
S315080038E00C461D462646D7E91C014FF00002714BCF
S315080038F004F086F803460C469846A146D7E91E0109
S315080039004FF000024FF0000304F07AF803460C4625
S3150800391019462246664B03F11004D4E90034002008
S31508003920059000200490CDE90234CDE90012424604
S315080039304B462846314601F01DFC6EE1D7F89C300F
S31508003940002B04D0D7F89C30012B40F06581D7F8BE
S315080039509830022B40F0B080D7F89C2013465B00C5
S315080039601A44D7E91A3452490632D2000A44C2E93F
S315080039700034D7F89C2013465B0013445A1CD7E939
S315080039801C344B490632D2000A44C2E90034D7F83F
S315080039909C2013465B0013449A1CD7E91E344449FD
S315080039A00632D2000A44C2E90034414BD3E9060183
S315080039B03F4B93F878301A4613465B0013443C4A4B
S315080039C00633DB00134418CB1A46234604F018F8CE
S315080039D003460C4618462146D7F89C2013465B003A
S315080039E01344334A0633DB00134418CB1A462346DE
S315080039F004F004F803460C46C7E91A342C4BD3E9FD
S31508003A0008012B4B93F878301A4613465B0013448B
S31508003A100133274A0633DB00134418CB1A462346DC
S31508003A2003F0EEFF03460C4618462146D7F89C20BD
S31508003A3013465B00134401331D4A0633DB00134467
S31508003A4018CB1A46234603F0D9FF03460C46C7E9A6
S31508003A501C34174BD3E90A01154B93F878301A46EC
S31508003A6013465B0013440233114A0633DB00134442
S31508003A7018CB1A46234603F0C3FF03460C461846DE
S31508003A802146D7F89C2013465B0013440233084AA4
S31508003A900633DB00134418CB1A46234603F0AEFF61
S31508003AA003460C46C7E91E34B6E000BFA000002056
S31508003AB08800002000001440D7F89830142B40F0F6
S31508003AC0AB80D7F89C2013465B009D185A4BD3E968
S31508003AD00601594B93F878301A4613465B0013448F
S31508003AE0554A0633DB00134418CB1A46234603F01F
S31508003AF087FF03460C465049AA1DD2000A44C2E96C
S31508003B000034D7F89C2013465B0013445D1C4A4BCF
S31508003B10D3E90801484B93F878301A4613465B00F8
S31508003B2013440133444A0633DB00134418CB1A46C0
S31508003B30234603F065FF03460C463F49AA1DD200FB
S31508003B400A44C2E90034D7F89C2013465B001344A4
S31508003B509D1C394BD3E90A01374B93F878301A463E
S31508003B6013465B0013440233334A0633DB0013441F
S31508003B7018CB1A46234603F043FF03460C462E4944
S31508003B80AA1DD2000A44C2E900344FF000034FF0E0
S31508003B900004C7E91A344FF000034FF00004C7E9E0
S31508003BA01C344FF000034FF00004C7E91E3433E01D
S31508003BB0D7E91A34204AC2E91834D7E91C341E4A10
S31508003BC0C2E91A34D7E91E341B4AC2E91C3424E078
S31508003BD00A2001F0FBFA20E0FF2002F0F3FFFF20A5
S31508003BE003F002F819E0002002F0ECFF002002F0D2
S31508003BF0FBFF12E002F0E0FC0FE002F0EFFC0CE045
S31508003C0002F0FEFC09E002F00DFD06E000BF04E04C
S31508003C1000BF02E000BF00E000BF07F168031822FA
S31508003C201946064804F00AFF034B1B781846CC379A
S31508003C30BD46BDE8F08F00BF88000020A000002028
S31508003C4080B400AF034B01221A7000BFBD4680BC8A
S31508003C50704700BFB001002080B400AF034B0122BB
S31508003C601A7000BFBD4680BC704700BFB101002076
S31508003C7080B584B000AFF860B9607A603B603B6895
S31508003C801B781A467B68134493F90030002B01D140
S31508003C9000232BE03B681B781A467B68134493F98C
S31508003CA00020FB681A70FB6893F90030402B04DD8E
S31508003CB0FB6893F900305A2B04DD0E4B05221A7067
S31508003CC0002313E03B681B780133DAB23B681A70AD
S31508003CD0BA683968786800F00FF80346002B04D1F3
S31508003CE0044B04221A70002300E0012318461037FB
S31508003CF0BD4680BD88000020B0B58AB000AFF86028
S31508003D00B9607A60BB681B781A46FB6813447B6205
S31508003D107B6A5A1C7A6293F9003087F823300023AD
S31508003D2087F8223097F823302D2B0AD1012387F8FC
S31508003D3022307B6A5A1C7A6293F9003087F823305E
S31508003D400AE097F823302B2B06D17B6A5A1C7A6235
S31508003D5093F9003087F823300023FB610023FB76B4
S31508003D600023BB7600237B7697F82330303B87F811
S31508003D70233097F82330092B25D8BB7E0133BB7631
S31508003D80BB7E082B12D87B7E002B05D097F91B30FB
S31508003D90DBB2013BDBB2FB76FB699A00FB69134495
S31508003DA05A0097F823301344FB6118E07B7E83F0B2
S31508003DB00103DBB2002B12D097F91B30DBB20133BB
S31508003DC0DBB2FB760BE097F82330FE2B0FD17B7E18
S31508003DD083F00103DBB2002B09D001237B767B6AD3
S31508003DE05A1C7A6293F9003087F82330BCE7BB7E09
S31508003DF0002B01D1002367E0F86903F03DFF024676
S31508003E000B46C7E904234FF000024FF00003D7E939
S31508003E10040104F00FFA0346002B3BD10EE02CA355
S31508003E20D3E90023D7E9040103F09CFF02460B46B9
S31508003E30C7E90423FB7E0233DBB2FB7697F91B3016
S31508003E40B3F1FF3FEBDB97F91B30002B0BDA22A30C
S31508003E50D3E90023D7E9040103F084FF02460B46A1
S31508003E60C7E9042316E097F91B30002B12DD4FF043
S31508003E7000021B4BD7E9040103F074FF02460B4608
S31508003E80C7E90423FB7E013BDBB2FB7697F91B30BF
S31508003E90002BECDC97F82230002B07D03C697B69B5
S31508003EA083F000457B68C3E9004504E07A68D7E9F2
S31508003EB00434C2E900347A6AFB68D31ADBB2013BE0
S31508003EC0DAB2BB681A70012318462837BD46B0BD5A
S31508003ED07B14AE47E17A843F9A9999999999B93FA3
S31508003EE00000244080B588B000AF0023FB6150E095
S31508003EF0FA6913465B001344DB00294A1344BB6185
S31508003F002849284B1B6BBA6912681209012000FA66
S31508003F1002F213430B63BB691B6803F00F0301220C
S31508003F2002FA03F37B60BB695B68BB60BB699B688D
S31508003F30FB60BB69DB683B61BB691B697B61BB696D
S31508003F401B681B0903F5801380339B021A463B1D29
S31508003F5019461046FCF70AFEBB695B69002B15DBA0
S31508003F60BB691B681B0903F5801380339B0218463F
S31508003F70BB691B6803F00F03012202FA03F399B227
S31508003F80BB695B69DBB21A46FCF7AAFFFB6901331A
S31508003F90FB61FB690D2BABD900BF2037BD4680BD41
S31508003FA0709300080038024080B500AF01224FF434
S31508003FB000610248FCF794FF00BF80BD0000024084
S31508003FC080B592B000AF0123BB610123FB610223D8
S31508003FD03B634FF480037B631923BB63F023FB63C6
S31508003FE002233B6405237B6407F118031846FCF794
S31508003FF08FFF0F237B600223BB600023FB604FF417
S31508004000A0533B614FF480537B613B1D0321184647
S31508004010FDF7C2F9FDF794FB0246074BA3FB022303
S315080040209B091846FCF7FEFA0420FCF707FB00BFBD
S315080040304837BD4680BD00BFD34D621080B500AF7E
S31508004040FCF79EF9FFF7BCFFFFF74CFF02F09CFE5A
S3150800405002F0A4FEFEF71EFB00F008F801F0C8FD0A
S31508004060FFF7A2FFFEF702FCFCE700BF90B583B09E
S3150800407002AF164B00221A70154B00221A700C223A
S315080040800021144804F0E5FC4FF000034FF000044B
S31508004090CDE900344FF000020F4B4FF000000E49F7
S315080040A001F03AF90D4B00221A70182200210C482B
S315080040B004F0CFFC0B4A4FF000034FF00004C2E9AE
S315080040C0003400BF0437BD4690BD00BF381200203B
S315080040D0391200203C12002000001440481200202B
S315080040E050120020681200202DE9F043A5B002AF57
S315080040F0C7E90201C7E900234FF000023A4BD7E9A6
S31508004100020103F02FFE03460C461846214603F02B
S31508004110CFFA03467B644FF00002334BD7E9000120
S3150800412003F020FE03460C461846214603F0C0FA63
S315080041300346BB642AA3D3E90023D7E92A0103F07F
S3150800414011FE03460C461846214603F0B1FA03460B
S31508004150FB64264B1B78DBB25BB2184601F03CF9D0
S315080041600346FB670AE0224B1B78DBB2002B05D11E
S3150800417001F0E2FD0346002B40F0F9821C4B1B7848
S31508004180DBB21A46FB6F9A42EDD01A4B1B78DBB2AC
S31508004190002B10D001F0E8FD044601F0EFFD804643
S315080041A001F0F6FD03461A464146204601F08EF810
S315080041B0104B00221A700D4B1B78DBB21A461346B9
S315080041C05B011344DB000C4A1344BB67D7F8C030C5
S315080041D0002B13D1BB6F00221A701AE0AFF30080D0
S315080041E032582F8EE33846400000494038120020E6
S315080041F03912002048120020B8010020BB6F0722A0
S315080042001A70BB6F6033A822D7F8C010184604F09E
S3150800421015FCBB6F97F8B82083F84020BB6F0022C7
S315080042201A827A6CB84B1B689A4206DABB6F1B8AED
S3150800423043F002039AB2BB6F1A82BA6CB24B5B6840
S315080042409A4206DABB6F1B8A43F020039AB2BB6F09
S315080042501A827A6CAC4B1B68D31A184604F0EAFB30
S3150800426003461A46BB6F5A60BA6CA74B5B68D31AEB
S31508004270184604F0DFFB03461A46BB6F9A60FA6CD1
S31508004280A14B9B68D31A184604F0D4FB03461A467A
S31508004290BB6FDA60BB6FDA68BB6F9B689A4238BF40
S315080042A01A46BB6F5B68934238BF13461A46BB6F04
S315080042B05A61BB6F5B69002B00F05B827A6C924B8C
S315080042C01B68D31A184603F0E7FC4FF000028F4B21
S315080042D003F072FE03460C46C7E90A34BA6C8A4BE9
S315080042E05B68D31A184603F0D7FC4FF00002874BD9
S315080042F003F062FE03460C46C7E90C34FA6C824B9F
S315080043009B68D31A184603F0C7FC79A3D3E90023A0
S3150800431003F052FE03460C46C7E90E34D7E90A01F4
S31508004320D7E90A341A46234603F01CFD03460C4611
S315080043309846A146D7E90C01D7E90C341A46234614
S3150800434003F010FD03460C461A46234640464946E6
S3150800435003F056FB03460C469846A146D7E90E01DC
S31508004360D7E90E341A46234603F0FCFC03460C46EE
S315080043701A4623464046494603F042FB03460C4686
S315080043801846214603F014FA03460C46BA6FC2E9EA
S315080043900E34BB6F03F13804D4E900341A462346B9
S315080043A04FF000005A4903F007FE03460C46C7E9DA
S315080043B01C34D7E91C23D7E92C0103F0D3FC0346A8
S315080043C00C46C7E91A34BB6FD3E90E01D7E91A239D
S315080043D003F0C8FC03460C46BA6FC2E90834BB6F43
S315080043E05B69184603F058FCD7E91A2303F0BAFCB0
S315080043F003460C461846214603F04AF803460C467F
S315080044001846214603F086FF0246BB6F9A61BB6FCA
S315080044105B69184603F040FCD7E91C2303F0A2FCAD
S3150800442003460C461846214633A3D3E9002303F076
S3150800443099FC03460C461846214631A3D3E90023C6
S3150800444003F0BAFD03460C461846214603F020F849
S3150800445003460C461846214603F034FF0246BB6F56
S31508004460DA64B7F8BC30002B04D0BB6FB7F8BC20B1
S31508004470A3F85820D7E90A01D7E91C2303F072FCF0
S3150800448003460C46C7E90434D7E90C01D7E91C23CF
S3150800449003F068FC03460C46C7E90634D7E90E0163
S315080044A0D7E91C2303F05EFC03460C46C7E908342B
S315080044B04FF000034FF00004C7E92034154B1B7872
S315080044C0DAB2154B1B78DBB29A4200F0F280134B36
S315080044D0D3E900014FF000024FF0000303F0D2FECB
S315080044E00346002B00F0E5800D4B1BE0AFF3008080
S315080044F032582F8EE33846400000000040773B4193
S31508004500000000000070C7403C120020000049402F
S315080045100000F03F381200203912002068120020EF
S315080045205012002018CB1D4684F00046D7E9043403
S315080045301A4623462846314603F014FC03460C4621
S315080045401D462646964BD3E90201D7E906341A4694
S31508004550234603F007FC03460C461A46234628461C
S31508004560314603F04BFA03460C461D4626468C4B4D
S31508004570D3E90401D7E908341A46234603F0F2FBC7
S3150800458003460C461A4623462846314603F036FAB1
S3150800459003460C46C7E9183479A3D3E90023D7E9BB
S315080045A0180103F051FE0346002B00F08280BB6F12
S315080045B0D3E908017B4B18CB1A46234603F062FE63
S315080045C00346002B02D0774B18CB04E0BB6F03F1F0
S315080045D02004D4E90034C7E920346BA3D3E90023C7
S315080045E0D7E9180103F04EFE0346002B61D0D7E940
S315080045F018234FF000006C4903F000FA03460C46F6
S31508004600184621464FF00002684B03F0ABFB034601
S315080046100C461846214603F0CBF8C7E916015CA3F9
S31508004620D3E90023D7E9160103F09CFB03460C46A1
S3150800463025461C46D7E916234FF000005A4903F0D1
S31508004640DDF902460B462046294603F0B5FC03462B
S315080046500C461846214603F0ABF8D7E9202303F0A9
S3150800466011FE0346002B02D0D7E920341FE048A3E9
S31508004670D3E90023D7E9160103F074FB03460C4679
S3150800468025461C46D7E916234FF00000464903F095
S31508004690B5F902460B462046294603F08DFC03462B
S315080046A00C461846214603F083F803460C46C7E92C
S315080046B02034BA6FD7E92034C2E90C34BB6F03F152
S315080046C03804D4E90034CDE900344FF000024FF045
S315080046D0000331A1D1E9000100F032FFC7E9140156
S315080046E0D7E91423D7E9200103F0AEFD0346002BD2
S315080046F002D0D7E9203401E0D7E91434BA6FC2E909
S315080047000A34BB6FD3E90801D7E9142303F0A6FDE1
S315080047100346002B04D0BB6F012283F8422003E036
S31508004720BB6F002283F84220BB6F012283F8412029
S3150800473007F1100318221946194804F07FF9BB6FD0
S3150800474003F12004D4E90034164AC2E90034FB6FA9
S31508004750DAB2174B1A7007F144030C2219461548AA
S3150800476004F06CF901F0E8F801F090FA02E000BFF5
S3150800477000E000BF8C37BD46BDE8F083AFF300808C
S31508004780666666666666EE3F666666666666EEBF79
S31508004790000000000018C5400000000040773BC13B
S315080047A050120020681200200000F03F0000E03F91
S315080047B0381200203C120020B0B58EB008AFC7E909
S315080047C00201C7E900234FF000034FF00004C7E9D0
S315080047D00434FB6BD3E92245FB6BB3F880301846EB
S315080047E003F05AFA02460B462046294603F0BAFA5F
S315080047F003460C46C7E90434FB6B93F8A030002B3C
S3150800480000F02781FB6BD3E924014FF000024FF03B
S31508004810000303F037FD0346002B45D0D7E90423F0
S31508004820D7E9020103F0ECF803460C461846214680
S31508004830FB6B03F19004D4E900341A46234603F0CF
S31508004840DFF803460C461846214600230693002344
S31508004850059300230493D7E90C34CDE90234D7E94C
S315080048600A34CDE90034D7E90023FFF73DFCD7E940
S315080048700423D7E9020103F0C3F803460C46184699
S315080048802146002306930023059300230493D7E9C2
S315080048900C34CDE90234D7E90A34CDE90034D7E936
S315080048A00023FFF721FC01E2FB6BD3E924014FF05B
S315080048B000024FF0000303F0C7FC0346002B31D07B
S315080048C0FB6BD3E92401D7E9022303F099F80346E1
S315080048D00C46184621460023069300230593002319
S315080048E00493D7E90C34CDE90234D7E90A34CDE983
S315080048F00034D7E90023FFF7F7FB002306930023CC
S31508004900059300230493D7E90C34CDE90234D7E99B
S315080049100A34CDE90034D7E90023D7E90201FFF7C5
S31508004920E3FBC3E1FB6BD3E926014FF000024FF02E
S31508004930000303F0A7FC0346002B49D0D7E904235C
S31508004940D7E9000103F05CF803460C4618462146F1
S31508004950FB6B03F19804D4E900341A46234603F0A6
S315080049604FF803460C4619462246002306930023B1
S31508004970059300230493D7E90C34CDE90234D7E92B
S315080049800A34CDE9003413460A46D7E90201FFF78F
S31508004990ABFBD7E90423D7E9000103F031F8034656
S315080049A00C46194622460023069300230593002346
S315080049B00493D7E90C34CDE90234D7E90A34CDE9B2
S315080049C0003413460A46D7E90201FFF78DFB6DE16D
S315080049D0FB6BD3E926014FF000024FF0000303F00A
S315080049E033FC0346002B00F06181FB6BD3E92601FB
S315080049F0D7E9002303F004F803460C461946224675
S31508004A00002306930023059300230493D7E90C3467
S31508004A10CDE90234D7E90A34CDE9003413460A460B
S31508004A20D7E90201FFF760FB0023069300230593ED
S31508004A3000230493D7E90C34CDE90234D7E90A34C4
S31508004A40CDE90034D7E90023D7E90201FFF74CFB8B
S31508004A502CE1FB6BD3E924014FF000024FF0000371
S31508004A6003F010FC0346002B35D0FB6B03F19004D2
S31508004A70D4E900341A462346D7E9020102F0BEFFFC
S31508004A8003460C4618462146002306930023059341
S31508004A9000230493D7E90C34CDE90234D7E90A3464
S31508004AA0CDE90034D7E90023FFF71EFB0023069360
S31508004AB00023059300230493D7E90C34CDE9023487
S31508004AC0D7E90A34CDE90034D7E90023D7E902014A
S31508004AD0FFF70AFBEAE0FB6BD3E924014FF000027B
S31508004AE04FF0000303F0B0FB0346002B45D0D7E98F
S31508004AF00423D7E9020102F083FF03460C46184651
S31508004B002146FB6B03F19004D4E900341A46234688
S31508004B1002F074FF03460C46184621460023069306
S31508004B200023059300230493D7E90C34CDE9023416
S31508004B30D7E90A34CDE90034D7E90023FFF7D4FAD8
S31508004B40D7E90423D7E9020102F05AFF03460C46C7
S31508004B501846214600230693002305930023049351
S31508004B60D7E90C34CDE90234D7E90A34CDE9003463
S31508004B70D7E90023FFF7B8FA98E0FB6BD3E92601DB
S31508004B804FF000024FF0000303F07CFB0346002BB6
S31508004B9037D0FB6B03F19804D4E900341A46234650
S31508004BA0D7E9000102F02AFF03460C4619462246B9
S31508004BB0002306930023059300230493D7E90C34B6
S31508004BC0CDE90234D7E90A34CDE9003413460A465A
S31508004BD0D7E90201FFF788FA002306930023059315
S31508004BE000230493D7E90C34CDE90234D7E90A3413
S31508004BF0CDE90034D7E90023D7E90201FFF774FAB3
S31508004C0054E0FB6BD3E926014FF000024FF0000396
S31508004C1003F01AFB0346002B48D0D7E90423D7E94B
S31508004C20000102F0EDFE03460C4618462146FB6BD2
S31508004C3003F19804D4E900341A46234602F0DEFE4E
S31508004C4003460C461946224600230693002305937D
S31508004C5000230493D7E90C34CDE90234D7E90A34A2
S31508004C60CDE9003413460A46D7E90201FFF73CFAB4
S31508004C70D7E90423D7E9000102F0C2FE03460C4631
S31508004C80194622460023069300230593002304931E
S31508004C90D7E90C34CDE90234D7E90A34CDE9003432
S31508004CA013460A46D7E90201FFF71EFAFB6B97F887
S31508004CB0382083F88220FB6B93F8A030002B00F095
S31508004CC02F81FB6BD3E924014FF000024FF000035C
S31508004CD003F0D8FA0346002B35D0FB6B0693002366
S31508004CE0059300230493D7E90C34CDE90234D7E9B8
S31508004CF00A34CDE90034D7E90023D7E90201FFF7E2
S31508004D00F3F9FB6B03F19004D4E900341A46234601
S31508004D10D7E9020102F072FE03460C461846214600
S31508004D20002306930023059300230493D7E90C3444
S31508004D30CDE90234D7E90A34CDE90034D7E90023AE
S31508004D40FFF7D2F912E2FB6BD3E924014FF0000218
S31508004D504FF0000303F078FA0346002B45D0D7E955
S31508004D600423D7E9020102F04BFE03460C46184617
S31508004D702146FB6B06930023059300230493D7E98A
S31508004D800C34CDE90234D7E90A34CDE90034D7E941
S31508004D900023FFF7A9F9D7E90423D7E9020102F0AE
S31508004DA02FFE03460C4618462146FB6B03F190047A
S31508004DB0D4E900341A46234602F020FE03460C4680
S31508004DC018462146002306930023059300230493DF
S31508004DD0D7E90C34CDE90234D7E90A34CDE90034F1
S31508004DE0D7E90023FFF780F9C0E1FB6BD3E9260179
S31508004DF04FF000024FF0000303F044FA0346002B7D
S31508004E0037D0FB6B06930023059300230493D7E959
S31508004E100C34CDE90234D7E90A34CDE90034D7E9B0
S31508004E200023D7E90201FFF75FF9FB6B03F198044A
S31508004E30D4E900341A462346D7E9000102F0DEFD1C
S31508004E4003460C461946224600230693002305937B
S31508004E5000230493D7E90C34CDE90234D7E90A34A0
S31508004E60CDE9003413460A46D7E90201FFF73CF9B3
S31508004E707CE1FB6BD3E926014FF000024FF00003FB
S31508004E8003F0E2F90346002B00D16FE1D7E90423CA
S31508004E90D7E9000102F0B4FD03460C46194622463E
S31508004EA0FB6B06930023059300230493D7E90C3480
S31508004EB0CDE90234D7E90A34CDE9003413460A4667
S31508004EC0D7E90201FFF710F9D7E90423D7E900016A
S31508004ED002F096FD03460C4618462146FB6B03F185
S31508004EE09804D4E900341A46234602F087FD03469F
S31508004EF00C461946224600230693002305930023F1
S31508004F000493D7E90C34CDE90234D7E90A34CDE95C
S31508004F10003413460A46D7E90201FFF7E5F825E10A
S31508004F20FB6BD3E924014FF000024FF0000303F0B6
S31508004F30A9F90346002B45D0D7E90423D7E902018E
S31508004F4002F05EFD03460C4618462146FB6B0693A7
S31508004F500023059300230493D7E90C34CDE90234E2
S31508004F60D7E90A34CDE90034D7E90023FFF7BCF8BE
S31508004F70D7E90423D7E9020102F042FD03460C46AD
S31508004F8018462146FB6B03F19004D4E900341A460F
S31508004F90234602F035FD03460C46184621460023F3
S31508004FA006930023059300230493D7E90C34CDE92F
S31508004FB00234D7E90A34CDE90034D7E90023FFF7EC
S31508004FC093F8D3E0FB6BD3E924014FF000024FF0CE
S31508004FD0000303F039F90346002B31D0FB6B069327
S31508004FE00023059300230493D7E90C34CDE9023452
S31508004FF0D7E90A34CDE90034D7E90023D7E9020115
S31508005000FFF772F8FB6BD3E92401D7E9022302F014
S31508005010F7FC03460C461846214600230693002350
S31508005020059300230493D7E90C34CDE90234D7E974
S315080050300A34CDE90034D7E90023FFF755F895E09F
S31508005040FB6BD3E926014FF000024FF0000303F093
S3150800505019F90346002B49D0D7E90423D7E90001FB
S3150800506002F0CEFC03460C4619462246FB6B069315
S315080050700023059300230493D7E90C34CDE90234C1
S31508005080D7E90A34CDE9003413460A46D7E90201BE
S31508005090FFF72AF8D7E90423D7E9000102F0B0FCA4
S315080050A003460C4618462146FB6B03F19804D4E9DF
S315080050B000341A46234602F0A3FC03460C4619465A
S315080050C02246002306930023059300230493D7E979
S315080050D00C34CDE90234D7E90A34CDE90034134655
S315080050E00A46D7E90201FEF7FFFF3FE0FB6BD3E96B
S315080050F026014FF000024FF0000303F0A5F803461F
S31508005100002B00D132E0FB6B0693002305930023A6
S315080051100493D7E90C34CDE90234D7E90A34CDE94A
S315080051200034D7E90023D7E90201FEF7DDFFFB6B60
S31508005130D3E92601D7E9002302F062FC03460C46B0
S315080051401946224600230693002305930023049359
S31508005150D7E90C34CDE90234D7E90A34CDE900346D
S3150800516013460A46D7E90201FEF7BEFF00BF183705
S31508005170BD46B0BD90B58DB008AFC7E90201C7E915
S31508005180002300230693BB8E059397F830300493CB
S31508005190D7E90A34CDE90234D7E90834CDE9003431
S315080051A0D7E90023D7E90201FEF79EFF00BF1437AF
S315080051B0BD4690BD80B485B000AFC7E9020113466D
S315080051C0FB7100BF1437BD4680BC704780B584B0FC
S315080051D000AF0346FB71144B1B78DBB25BB2184673
S315080051E000F0FAF80346FB6000BF104B1B78DBB2F1
S315080051F01A46FB689A42F8D00B4B1B78DBB21A4664
S3150800520013465B011344DB00094A1344BB60BB68C1
S31508005210FA791A70FB68DAB2034B1A7000F036FD99
S3150800522000BF1037BD4680BD381200203912002055
S31508005230B801002080B400AF0B4B1B78DAB20B4BD9
S315080052401B78DBB29A4201D1002309E0074B1B7891
S31508005250DBB21A4613465B011344DB00044A1344C7
S315080052601846BD4680BC7047381200203912002007
S31508005270B801002080B500AF0A4B1B78DAB20A4B9A
S315080052801B78DBB29A420AD0074B1B78DBB25BB2BB
S31508005290184600F0A1F80346DAB2034B1A7000BFAD
S315080052A080BD00BF381200203912002080B400AF3C
S315080052B0044B00221A70044B00221A7000BFBD4628
S315080052C080BC7047381200203912002090B585B08E
S315080052D000AFF860B9607A600C4AFB6813600B4A45
S315080052E0BB685360094A7B689360094A4FF000031C
S315080052F04FF00004C2E9003418220021054803F0E3
S31508005300A8FB00BF1437BD4690BD00BF3C12002065
S31508005310681200205012002090B585B000AFC7E98A
S315080053200201C7E900234FF00002214BD7E9020129
S3150800533002F018FD03460C461846214602F0B8F955
S3150800534002461C4B1A604FF00002194BD7E90001C0
S3150800535002F008FD03460C461846214602F0A8F955
S315080053600246144B5A6010A3D3E90023D7E9080173
S3150800537002F0F8FC03460C461846214602F098F956
S3150800538002460C4B9A600C4A4FF000034FF000049B
S31508005390C2E9003418220021084803F05AFB00BF6E
S315080053A01437BD4690BD00BF32582F8EE3384640AD
S315080053B0000049403C1200206812002050120020CC
S315080053C080B400AF034B01221A7000BFBD4680BCF3
S315080053D0704700BF4812002080B483B000AF034670
S315080053E0FB7197F90730DBB20133DBB2FB7197F932
S315080053F00730102B01D10023FB7197F907301846A7
S315080054000C37BD4680BC704780B483B000AF0346F6
S31508005410FB7197F90730002B01D11023FB7197F91F
S315080054200730DBB2013BDBB2FB7197F90730184650
S315080054300C37BD4680BC7047B0B584B000AFC7E92D
S315080054400201C7E90023D7E90023D7E9000102F0E2
S3150800545089FC03460C4625461C46D7E90223D7E9AC
S31508005460020102F07FFC02460B462046294602F05E
S31508005470C5FA03460C4625461C46D7E908010246E6
S315080054800B4602F0BDFA02460B462046294602F0B4
S3150800549093FD03460C46184621461037BD46B0BD57
S315080054A0B0B584B000AFC7E90201C7E90023D7E960
S315080054B0080102460B4602F0A3FA03460C461846B4
S315080054C02146D7E90A2302F04DFC03460C46254639
S315080054D01C46D7E90223D7E9020102F043FC02463B
S315080054E00B462046294602F089FA03460C4625460D
S315080054F01C46D7E90023D7E9000102F033FC02462F
