S02A0000433A5C55736572735C796F73686979615C4465736B746F705C4574636865724772626C2E6D6F7496
S3150800000000000120A1020008A9020008B1020008A8
S31508000010D5020008DD020008010300080000000000
S315080000200000000000000000000000002503000892
S315080000302D030008000000003503000815660008B7
S3150800004091230008912300089123000891230008B2
S3150800005091230008912300089123000891230008A2
S315080000609123000891230008912300089123000892
S315080000709123000891230008912300089123000882
S315080000809123000891230008912300089123000872
S315080000909123000891230008912300089123000862
S315080000A09123000891230008912300089123000852
S315080000B029690008912300081D6C0008912300088F
S315080000C09123000891230008912300089123000832
S315080000D09123000849660008912300089123000827
S315080000E09123000891230008912300089123000812
S315080000F09123000891230008912300089123000802
S3150800010091230008912300089123000891230008F1
S3150800011091230008912300089123000891230008E1
S3150800012091230008912300082166000891230008FE
S315080001309123000800000000000000009123000839
S3150800014091230008912300089123000891230008B1
S3150800015091230008912300083566000891230008BA
S315080001609123000891230008912300089123000891
S3150800017091230008912300080000000000000000F9
S315080001809123000880B58EB000AF02F0D5F8394B40
S315080001907B63394B3B61394BFB603B69BB6007E0CE
S315080001A0BB681A1DBA607A6B111D796312681A60EA
S315080001B0FA68BB689A42F3D8314B3B63314BBB6153
S315080001C03B6B7B6104E07B691A1D7A6100221A6029
S315080001D0BA697B699A42F6D802F0BCF83A463B1DE2
S315080001E01146184602F096F8274A284BD31A9B1050
S315080001F03B620023FB6107E0244AFB6952F823307F
S315080002009847FB690133FB613A6AFB699A42F3DC5A
S315080002101F4A204BD31A9B103B620023FB6107E061
S315080002201C4AFB6952F823309847FB690133FB6186
S315080002303A6AFB699A42F3DC7B683A6811461846C3
S3150800024003F0A4FEF862144A144BD31A9B10BB623F
S31508000250BB6A7B6208E07B6A013B104A52F823308E
S3150800026098477B6A013B7B627B6A002BF3DCF86A62
S3150800027002F04AF82C8B00080000002074000020C9
S3150800028078000020001D0020800300088003000875
S315080002908003000880030008800300088003000824
S315080002A02948004700BF00BF80B400AFFEE700BF83
S315080002B01EF0040F0CBFEFF30880EFF309807146B8
S315080002C0224A104700BF00BF80B483B000AF7860F1
S315080002D03960FEE780B400AFFEE700BF1EF0040FEA
S315080002E00CBFEFF30880EFF309807146184A1047F0
S315080002F000BF00BF80B483B000AF78603960FEE706
S315080003001EF0040F0CBFEFF30880EFF30980714667
S31508000310104A104700BF00BF80B483B000AF7860B2
S315080003203960FEE780B400AFFEE700BF80B400AFD7
S31508000330FEE700BF80B400AFFEE700BF80B400AFA1
S3150800034000BFBD4680BC704785010008C902000889
S30D08000350F50200081903000874
S315080003582C8B000800000020740000202C8B000855
S31508000368000000100000001078000020001D002082
S30D0800037800000010000000104F
S3150800038080B500AF0E4A0E4B1B6843F4007313602A
S315080003900B4A0B4B1B6843F480631360084A084BEF
S315080003A01B6843F480731360032000F005F90020EE
S315080003B000F008F806F0E6F80023184680BD00BFEE
S315080003C0003C024080B582B000AF786001F0B8F911
S315080003D00246094BA3FB02239B09184600F022F9A3
S315080003E0002279684FF0FF3000F0F2F80023184633
S315080003F00837BD4680BD00BFD34D621080B400AF3C
S31508000400044B1B680133034A136000BFBD4680BC1A
S31508000410704700BF7800002080B400AF024B1B680D
S315080004201846BD4680BC70477800002080B485B069
S3150800043000AF78607B6803F00703FB600C4BDB6852
S31508000440BB60BA684FF6FF031340BB60FB681A022D
S31508000450BB68134343F0BF6343F40033BB60044AED
S31508000460BB68D36000BF1437BD4680BC704700BF69
S3150800047000ED00E080B400AF044BDB6803F4E063F2
S315080004801B0A1846BD4680BC704700BF00ED00E059
S3150800049080B483B000AF0346FB71084997F907306B
S315080004A05B09FA7902F01F02012000FA02F241F80C
S315080004B0232000BF0C37BD4680BC704700E100E032
S315080004C080B483B000AF03463960FB7197F90730F3
S315080004D0002B0BDA0D49FB7903F00F03043B3A684E
S315080004E0D2B21201D2B20B441A7609E0084997F93A
S315080004F007303A68D2B21201D2B20B4483F800230D
S3150800050000BF0C37BD4680BC704700BF00ED00E059
S3150800051000E100E080B489B000AFF860B9607A60A5
S31508000520FB6803F00703FB61FB69C3F10703042BB0
S3150800053028BF0423BB61FB690433062B02D9FB6978
S31508000540033B00E000237B610122BB6902FA03F347
S315080005505A1EBB681A407B699A4001217B6901FAD9
S3150800056003F3591E7B680B40134318462437BD46D0
S3150800057080BC704780B582B000AF78607B68013B6D
S31508000580B3F1807F01D301230FE00A4A7B68013B60
S3150800059053600F214FF0FF30FFF792FF054B002203
S315080005A09A60044B07221A60002318460837BD468E
S315080005B080BD00BF10E000E080B582B000AF786073
S315080005C07868FFF733FF00BF0837BD4680BD00BF18
S315080005D080B586B000AF0346B9607A60FB73002326
S315080005E07B61FFF747FF78617A68B9687869FFF732
S315080005F091FF024697F90F3011461846FFF760FF3C
S3150800060000BF1837BD4680BD80B582B000AF03462F
S31508000610FB7197F907301846FFF73AFF00BF08370E
S31508000620BD4680BD80B582B000AF78607868FFF7B8
S31508000630A1FF034618460837BD4680BD80B483B07F
S3150800064000AF78607B68042B06D1094A084B1B6803
S3150800065043F00403136005E0054A054B1B6823F0C5
S315080006600403136000BF0C37BD4680BC704700BF4B
S3150800067010E000E080B584B000AF78600023FB602E
S315080006807B68002B01D101235AE07B68022283F89C
S3150800069035207B681B681B68FB60FA682A4B134089
S315080006A0FB607B685A687B689B681A437B68DB68D3
S315080006B01A437B681B691A437B685B691A437B6824
S315080006C09B691A437B68DB691A437B681B6A134379
S315080006D0FA681343FB607B685B6A042B07D17B6867
S315080006E0DA6A7B681B6B1343FA681343FB607B6803
S315080006F01B68FA681A607B681B685B69FB60FB68A5
S3150800070023F00703FB607B685B6AFA681343FB60A8
S315080007107B685B6A042B04D17B689B6AFA6813437F
S31508000720FB607B681B68FA685A61786800F0EAF92A
S315080007307B680022DA647B68012283F8352000236F
S3150800074018461037BD4680BD3F8010F080B584B08E
S3150800075000AFF860B9607A603B60FB6893F83430A4
S31508000760012B01D102232EE0FB68012283F83420F5
S31508000770FB68022283F83520FB681B68FA68126852
S31508000780126822F001021A603B687A68B968F8684C
S3150800079000F08AF9FB681B68FA681268126842F06A
S315080007A01E021A60FB681B68FA681268526942F0F2
S315080007B080025A61FB681B68FA681268126842F080
S315080007C001021A60002318461037BD4680BD00BFD7
S315080007D080B584B000AF78607B681B6DFB60FB68F2
S315080007E01A687B685B6D082101FA03F31340002B36
S315080007F02AD07B681B681B6803F00403002B23D0F0
S315080008007B681B687A681268126822F004021A600C
S315080008107B685B6D08229A40FB689A607B68DB6C94
S3150800082043F001027B68DA647B68042283F835208A
S315080008307B68002283F834207B689B6C002B03D0EE
S315080008407B689B6C78689847FB681A687B685B6D61
S31508000850934901FA03F31340002B2AD07B681B68DF
S315080008605B6903F08003002B23D07B681B687A68DA
S315080008701268526922F080025A617B685B6D884A69
S315080008809A40FB689A607B68DB6C43F002027B68DF
S31508000890DA647B68042283F835207B68002283F8B3
S315080008A034207B689B6C002B03D07B689B6C786834
S315080008B09847FB681A687B685B6D7A4901FA03F307
S315080008C01340002B2AD07B681B681B6803F00203C1
S315080008D0002B23D07B681B687A681268126822F09E
S315080008E002021A607B685B6D6E4A9A40FB689A60E2
S315080008F07B68DB6C43F004027B68DA647B6804225D
S3150800090083F835207B68002283F834207B689B6C4B
S31508000910002B03D07B689B6C78689847FB681A683D
S315080009207B685B6D102101FA03F31340002B4CD052
S315080009307B681B681B6803F00803002B45D07B689F
S315080009401B681B6803F48023002B1DD07B685B6D36
S3150800095010229A40FB689A607B681B681B6803F440
S315080009600023002B04D17B68312283F8352024E04C
S315080009707B681B681B6803F40023002B1DD07B686B
S31508000980412283F8352018E07B681B681B6803F44E
S315080009908073002B07D17B681B687A681268126817
S315080009A022F008021A607B685B6D10229A40FB6889
S315080009B09A607B68312283F835207B681B6C002B94
S315080009C003D07B681B6C78689847FB681A687B6855
S315080009D05B6D202101FA03F31340002B5CD07B6882
S315080009E01B681B6803F01003002B55D07B681B6837
S315080009F01B6803F48023002B25D07B685B6D2022BF
S31508000A009A40FB689A607B681B681B6803F400239E
S31508000A10002B08D17B685B6C002B3DD07B685B6C38
S31508000A207868984738E07B681B681B6803F40023DE
S31508000A30002B31D07B68DB6B002B2DD07B68DB6B02
S31508000A407868984728E07B681B681B6803F48073FE
S31508000A50002B07D17B681B687A681268126822F037
S31508000A6010021A607B685B6D20229A40FB689A60C8
S31508000A707B68DA6C7B68DA647B68112283F8352038
S31508000A807B68002283F834207B68DB6B002B03D05D
S31508000A907B68DB6B7868984700BF1037BD4680BD1A
S31508000AA0010080000400800080B485B000AFF860C3
S31508000AB0B9607A603B60FB681B68FA68126812685E
S31508000AC022F480221A60FB681B683A685A60FB6841
S31508000AD09B68402B08D1FB681B687A689A60FB689C
S31508000AE01B68BA68DA6007E0FB681B68BA689A6030
S31508000AF0FB681B687A68DA6000BF1437BD4680BC9D
S31508000B00704700BF80B485B000AF78607B681B680B
S31508000B10DBB2103B134AA2FB03231B09FB60124AF4
S31508000B20FB6813441B781A467B685A65FB68032BD7
S31508000B3009D97B681B6823F47F7323F003031A1D06
S31508000B407B681A6507E07B681B6823F47F7323F0CC
S31508000B5003037A6813657B681B6D18461437BD4610
S31508000B6080BC7047ABAAAAAA3C89000880B489B0A1
S31508000B7000AF7860396000237B6100233B61002366
S31508000B80BB610023FB6171E10122FB6902FA03F3F1
S31508000B907B613B681A687B6913403B613A697B69EC
S31508000BA09A4240F060813B685B68022B03D03B6841
S31508000BB05B68122B23D1FB69DA087B68083253F885
S31508000BC02230BB61FB6903F007039B000F2202FA80
S31508000BD003F3DB43BA691340BB613B681A69FB69D7
S31508000BE003F007039B0002FA03F3BA691343BB61D8
S31508000BF0FB69DA087B680832B96943F822107B6812
S31508000C001B68BB61FB695B00032202FA03F3DB4343
S31508000C10BA691340BB613B685B6803F00302FB6972
S31508000C205B0002FA03F3BA691343BB617B68BA69CE
S31508000C301A603B685B68012B0BD03B685B68022B2C
S31508000C4007D03B685B68112B03D03B685B68122BA7
S31508000C5030D17B689B68BB61FB695B00032202FAA3
S31508000C6003F3DB43BA691340BB613B68DA68FB6987
S31508000C705B0002FA03F3BA691343BB617B68BA697E
S31508000C809A607B685B68BB610122FB6902FA03F321
S31508000C90DB43BA691340BB613B685B681B0903F019
S31508000CA00102FB6902FA03F3BA691343BB617B6865
S31508000CB0BA695A607B68DB68BB61FB695B00032223
S31508000CC002FA03F3DB43BA691340BB613B689A68CF
S31508000CD0FB695B0002FA03F3BA691343BB617B68DD
S31508000CE0BA69DA603B685B6803F08053002B00F052
S31508000CF0BA800023FB60624A614B5B6C43F4804315
S31508000D0053645F4B5B6C03F48043FB60FB685D4A8E
S31508000D10FB699B08023352F82330BB61FB6903F079
S31508000D2003039B000F2202FA03F3DB43BA6913405D
S31508000D30BB617B68544A934231D07B68534A9342DD
S31508000D402BD07B68524A934225D07B68514A9342FE
S31508000D501FD07B68504A934219D07B684F4A93420A
S31508000D6013D07B684E4A93420DD07B684D4A934216
S31508000D7007D07B684C4A934201D1082310E0092327
S31508000D800EE007230CE006230AE0052308E0042307
S31508000D9006E0032304E0022302E0012300E0002327
S31508000DA0FA6902F0030292009340BA691343BB61E1
S31508000DB03449FB699B080233BA6941F823203B4B47
S31508000DC01B68BB613B69DB43BA691340BB613B687F
S31508000DD05B6803F48033002B03D0BA693B6913437D
S31508000DE0BB61324ABB691360304B5B68BB613B69C8
S31508000DF0DB43BA691340BB613B685B6803F40033A5
S31508000E00002B03D0BA693B691343BB61274ABB6908
S31508000E105360264B9B68BB613B69DB43BA69134049
S31508000E20BB613B685B6803F48013002B03D0BA6987
S31508000E303B691343BB611D4ABB6993601B4BDB6867
S31508000E40BB613B69DB43BA691340BB613B685B68BE
S31508000E5003F40013002B03D0BA693B691343BB6143
S31508000E60124ABB69D360FB690133FB61FB690F2B2F
S31508000E707FF68AAE00BF2437BD4680BC704700BFE8
S31508000E8000380240003801400000024000040240D9
S31508000E9000080240000C0240001002400014024004
S31508000EA000180240001C024000200240003C01409D
S31508000EB080B485B000AF78600B467B807B681A6982
S31508000EC07B881340002B02D00123FB7301E000232B
S31508000ED0FB73FB7B18461437BD4680BC704700BFC2
S31508000EE080B483B000AF78600B467B8013467B7076
S31508000EF07B78002B03D07A887B689A6103E07B882D
S31508000F001A047B689A6100BF0C37BD4680BC7047DF
S31508000F1080B58EB000AF786000237B637B681B6862
S31508000F2003F00103002B65D0A74B9B6803F00C0365
S31508000F30042B0BD0A44B9B6803F00C03082B11D190
S31508000F40A14B5B6803F48003002B0BD09E4B1B68F8
S31508000F5003F40033002B4CD07B685B68002B48D128
S31508000F6001230EE2994B00221A70FFF755FA7863AF
S31508000F7008E0FFF751FA02467B6BD31A642B01D9B6
S31508000F800323FEE1904B1B6803F40033002BF0D1DA
S31508000F908E4A7B685B68DBB213707B685B68002BE4
S31508000FA013D0FFF739FA786308E0FFF735FA0246F7
S31508000FB07B6BD31A642B01D90323E2E1824B1B68AE
S31508000FC003F40033002BF0D014E0FFF725FA78631A
S31508000FD008E0FFF721FA02467B6BD31A642B01D986
S31508000FE00323CEE1784B1B6803F40033002BF0D1C2
S31508000FF000E000BF7B681B6803F00203002B77D074
S31508001000714B9B6803F00C03002B0BD06E4B9B684F
S3150800101003F00C03082B26D16B4B5B6803F48003A3
S31508001020002B20D1684B1B6803F00203002B05D068
S315080010307B68DB68012B01D00123A2E16248624B81
S315080010401B6823F0F8027B681969F8233B623B6A40
S3150800105093FAA3F3FB61FB69B3FA83F301FA03F38B
S315080010601343036044E07B68DB68002B2AD0584BA7
S3150800107001221A60FFF7D0F9786308E0FFF7CCF988
S3150800108002467B6BD31A642B01D9032379E14E4BB5
S315080010901B6803F00203002BF0D04B484A4B1B6831
S315080010A023F0F8027B681969F823FB62FB6A93FA56
S315080010B0A3F3BB61BB69B3FA83F301FA03F31343E2
S315080010C0036015E0424B00221A60FFF7A5F9786322
S315080010D008E0FFF7A1F902467B6BD31A642B01D906
S315080010E003234EE1384B1B6803F00203002BF0D1B3
S315080010F07B681B6803F00803002B30D07B685B69AC
S31508001100002B16D0334B01221A60FFF785F9786356
S3150800111008E0FFF781F902467B6BD31A642B01D9E5
S3150800112003232EE1284B5B6F03F00203002BF0D05C
S3150800113015E0284B00221A60FFF76EF9786308E07D
S31508001140FFF76AF902467B6BD31A642B01D903238E
S3150800115017E11D4B5B6F03F00203002BF0D17B6890
S315080011601B6803F00403002B7FD00023BB60164ADC
S31508001170154B1B6C43F080531364134B1B6C03F025
S315080011808053BB60BB68144A134B1B6843F48073D7
S315080011901360FFF741F9786308E0FFF73DF9024667
S315080011A07B6BD31A642B01D90323EAE00A4B1B682D
S315080011B003F48073002BF0D0084B00221A70FFF757
S315080011C02BF9786317E000BF003802400238024066
S315080011D000004742800E47420070004070380240C7
S315080011E0FFF71AF902467B6BD31A41F2883293420B
S315080011F001D90323C5E0654B1B6F03F00203002BDF
S31508001200EED1634A7B689B68DBB213707B689B6888
S31508001210002B15D0FFF700F978630AE0FFF7FCF812
S3150800122002467B6BD31A41F28832934201D90323D3
S31508001230A7E0564B1B6F03F00203002BEED014E019
S31508001240FFF7EAF878630AE0FFF7E6F802467B6BF1
S31508001250D31A41F28832934201D9032391E04B4BCA
S315080012601B6F03F00203002BEED17B689B69002BF2
S3150800127000F08680454B9B6803F00C03082B7DD055
S315080012807B689B69022B62D1424B00221A60FFF7EA
S31508001290C3F8786308E0FFF7BFF802467B6BD31AFA
S315080012A0642B01D903236CE0384B1B6803F00073E9
S315080012B0002BF0D135487B68DA697B681B6A1A43CC
S315080012C07B68596A47F6C073BB62BB6A93FAA3F395
S315080012D0FB60FB68B3FA83F301FA03F31A437B68EE
S315080012E09B6A5B08591E4FF440337B627B6A93FA0C
S315080012F0A3F33B613B69B3FA83F301FA03F31A4399
S315080013007B68D96A4FF070633B633B6B93FAA3F330
S315080013107B617B69B3FA83F301FA03F313434360F2
S315080013201C4B01221A60FFF777F8786308E0FFF78D
S3150800133073F802467B6BD31A642B01D9032320E08A
S31508001340124B1B6803F00073002BF0D018E0114B0A
S3150800135000221A60FFF760F8786308E0FFF75CF888
S3150800136002467B6BD31A642B01D9032309E0074B8A
S315080013701B6803F00073002BF0D101E0012300E0A5
S31508001380002318463837BD4680BD00BF00380240E6
S31508001390703802406000474280B584B000AF78607C
S315080013A039600023FB60A54B1B6803F007023B6806
S315080013B09A4280F08F80A14B3A68D2B21A709F4B3E
S315080013C01B6803F007023B689A4201D0012331E10A
S315080013D07B681B6803F00203002B08D09849984BDA
S315080013E09B6823F0F0027B689B6813438B607B68DD
S315080013F01B6803F00103002B00F0F9807B685B682B
S31508001400012B07D18E4B1B6803F40033002B15D133
S3150800141001230FE17B685B68022B07D1884B1B68A9
S3150800142003F00073002B09D1012303E1844B1B68E9
S3150800143003F00203002B01D10123FBE08049804B16
S315080014409B6823F003027B685B6813438B60FEF797
S31508001450E3FFF8607B685B68012B12D10AE0FEF7B0
S31508001460DBFF0246FB68D31A41F28832934201D960
S315080014700323DFE0724B9B6803F00C03042BEED1C9
S31508001480B5E07B685B68022B1DD10AE0FEF7C4FF56
S315080014900246FB68D31A41F28832934201D90323E4
S315080014A0C8E0674B9B6803F00C03082BEED19EE05F
S315080014B0FEF7B2FF0246FB68D31A41F2883293421E
S315080014C001D90323B6E05E4B9B6803F00C03002B9F
S315080014D0EED18CE07B681B6803F00203002B08D072
S315080014E05749574B9B6823F0F0027B689B68134368
S315080014F08B607B681B6803F00103002B6AD07B684E
S315080015005B68012B07D14E4B1B6803F40033002B95
S3150800151015D101238EE07B685B68022B07D1484B07
S315080015201B6803F00073002B09D1012382E0444BAA
S315080015301B6803F00203002B01D101237AE040491E
S315080015403F4B9B6823F003027B685B6813438B6001
S31508001550FEF762FFF8607B685B68012B12D10AE030
S31508001560FEF75AFF0246FB68D31A41F288329342C5
S3150800157001D903235EE0324B9B6803F00C03042B6E
S31508001580EED127E07B685B68022B1DD10AE0FEF7E7
S3150800159043FF0246FB68D31A41F28832934201D9C7
S315080015A0032347E0264B9B6803F00C03082BEED178
S315080015B010E0FEF731FF0246FB68D31A41F2883283
S315080015C0934201D9032335E01D4B9B6803F00C03B6
S315080015D0002BEED1194B3A68D2B21A70174B1B681A
S315080015E003F007023B689A4201D0012322E07B6898
S315080015F01B6803F00403002B08D01149104B9B68A5
S3150800160023F4E0527B68DB6813438B607B681B68B6
S3150800161003F00803002B09D00949094B9B6823F4FA
S3150800162060427B681B69DB0013438B600020FEF772
S31508001630C9FE002318461037BD4680BD003C02404F
S315080016400038024080B48BB000AF0023FB61002352
S315080016507B620023BB6100233B62364B9B6803F029
S315080016600C03042B06D0082B07D0002B58D1324B7D
S315080016703B6258E0314B3B6255E02E4B5B6803F00A
S315080016803F03FB612B4B5B6803F48003002B17D0E9
S315080016902A4AFB69B2FBF3F2264B596847F6C07330
S315080016A00B4047F6C071F960F96891FAA1F1B96083
S315080016B0B968B1FA81F1CB4003FB02F37B6216E00D
S315080016C01D4AFB69B2FBF3F21A4B596847F6C07319
S315080016D00B4047F6C0717961796991FAA1F1796091
S315080016E07968B1FA81F1CB4003FB02F37B62114BB7
S315080016F05B6803F440324FF440333B613B6993FA2D
S31508001700A3F33B603B68B3FA83F322FA03F301338E
S315080017105B00BB617A6ABB69B2FBF3F33B6202E02A
S31508001720054B3B6200BF3B6A18462C37BD4680BC5A
S31508001730704700BF003802400024F40040787D015D
S3150800174080B582B000AFFFF77DFF01460D4B9B6861
S3150800175003F0F002F0237B607B6893FAA3F33B6007
S315080017603B68B3FA83F322FA03F3074AD35C21FAF8
S3150800177003F3064A1360054B1B6818460837BD462F
S3150800178080BD00BF003802404489000808000020D8
S3150800179080B582B000AFFFF7D3FF01460B4B9B68BD
S315080017A003F4E0524FF4E0537B607B6893FAA3F3AB
S315080017B03B603B68B3FA83F322FA03F3044AD35C2B
S315080017C021FA03F318460837BD4680BD00380240A3
S315080017D04489000880B582B000AFFFF7B1FF014623
S315080017E00B4B9B6803F460424FF460437B607B6855
S315080017F093FAA3F33B603B68B3FA83F322FA03F345
S31508001800044AD35C21FA03F318460837BD4680BD5F
S31508001810003802404489000880B582B000AF78607D
S315080018207B68002B01D101233BE07B6893F83930B4
S31508001830DBB2002B06D17B68002283F83820786853
S3150800184004F0AEFE7B68022283F839207B681B68A9
S315080018507A681268D26822F40052DA60786800F072
S31508001860E7FB7B681B687A681268126922F4904263
S315080018701A617B681B687A681268526922F02A0224
S315080018805A617B681B687A681268D26842F400520B
S31508001890DA607B680022DA637B68012283F83920E4
S315080018A0002318460837BD4680BD00BF80B586B000
S315080018B000AFF860B9601346FB8000237B61FB68C4
S315080018C093F83930DBB27B617B69012B02D07B69E7
S315080018D0222B5AD1BB68002B02D0FB88002B01D1E2
S315080018E0012353E0FB6893F83830012B01D102231A
S315080018F04CE0FB68012283F83820BA68FB681A6254
S31508001900FB68FA889A84FB68FA88DA84FB680022FE
S31508001910DA63FB6893F83930DBB2222B04D1FB6813
S31508001920322283F8392003E0FB68122283F8392033
S31508001930FB681B6B174ADA63FB681B6B164A1A644B
S31508001940FB681B6B154A9A6407F108033B61FB6841
S31508001950186B3B691968FB681B6804331A46FB88D1
S31508001960FEF7F4FEFB681B686FF040021A60FB681E
S315080019701B68FA681268526942F080025A61FB686D
S31508001980002283F83820002300E00223184618377F
S31508001990BD4680BDE11C0008351D0008CD1D0008A8
S315080019A080B586B000AFF860B9601346FB800023A7
S315080019B07B61FB6893F83930DBB27B617B69012B6D
S315080019C002D07B69122B52D1BB68002B02D0FB8850
S315080019D0002B01D101234BE0FB6893F83830012B2B
S315080019E001D1022344E0FB68012283F83820BA6853
S315080019F0FB689A62FB68FA889A85FB680022DA63B4
S31508001A00FB6893F83930DBB2122B04D1FB6832221B
S31508001A1083F8392003E0FB68222283F83920FB6823
S31508001A205B6B154ADA63FB685B6B144A1A64FB68DE
S31508001A305B6B134A9A6407F108033B61FB68586BB2
S31508001A40FB681B68043319463B691A68FB88FEF76E
S31508001A507DFEFB681B68FA681268526942F040020C
S31508001A605A61FB68002283F83820002300E002232D
S31508001A7018461837BD4680BD511D0008B11D00081F
S31508001A80CD1D000880B588B000AF78600023FB61E3
S31508001A900023BB617B681B681B6803F00103002BEE
S31508001AA014BF01230023DBB2FB617B681B68DB687C
S31508001AB003F48073BB61FB69002B13D0BB69002B51
S31508001AC010D000237B617B681B681B687B617B6881
S31508001AD01B685B687B617B697B68DB6B43F0010293
S31508001AE07B68DA637B681B681B6803F00203002BBC
S31508001AF014BF01230023DBB2FB617B681B685B69AB
S31508001B0003F00103BB61FB69002B13D0BB69002BF3
S31508001B1010D000233B617B681B681B683B617B68B0
S31508001B201B685B683B613B697B68DB6B43F00402BF
S31508001B307B68DA637B681B681B6803F00403002B69
S31508001B4014BF01230023DBB2FB617B681B685B695A
S31508001B5003F00103BB61FB69002B13D0BB69002BA3
S31508001B6010D00023FB607B681B681B68FB607B68E2
S31508001B701B685B68FB60FB687B68DB6B43F00202F3
S31508001B807B68DA637B681B681B6803F00803002B15
S31508001B9014BF01230023DBB2FB617B681B685B690A
S31508001BA003F00103BB61FB69002B13D0BB69002B53
S31508001BB010D00023BB607B681B681B68BB607B6812
S31508001BC01B685B68BB60BB687B68DB6B43F008021D
S31508001BD07B68DA637B681B681B6803F02003002BAD
S31508001BE014BF01230023DBB2FB617B681B68DB683B
S31508001BF003F02003BB61FB69002B05D0BB69002BF2
S31508001C0002D0786800F080F97B681B681B6803F0CF
S31508001C108003002B14BF01230023DBB2FB617B6822
S31508001C201B68DB6803F08003BB61FB69002B05D0EA
S31508001C30BB69002B02D0786800F0E6F87B681B6861
S31508001C401B6803F04003002B14BF01230023DBB2FB
S31508001C50FB617B681B68DB6803F04003BB61FB69BB
S31508001C60002B05D0BB69002B02D0786800F028F954
S31508001C707B68DB6B002B06D07B68012283F8392052
S31508001C80786800F023F800BF2037BD4680BD00BF46
S31508001C9080B483B000AF786000BF0C37BD4680BC07
S31508001CA0704700BF80B483B000AF786000BF0C37C0
S31508001CB0BD4680BC704700BF80B483B000AF786073
S31508001CC000BF0C37BD4680BC704700BF80B483B0E8
S31508001CD000AF786000BF0C37BD4680BC704700BFB8
S31508001CE080B584B000AF78607B689B6BFB607B68CF
S31508001CF01B681B6803F48073002B13D1FB68002252
S31508001D00DA84FB681B68FA681268526922F0800256
S31508001D105A61FB681B68FA681268D26842F040028A
S31508001D20DA6002E0F868FFF7B3FF00BF1037BD4678
S31508001D3080BD00BF80B584B000AF78607B689B6BC0
S31508001D40FB60F868FFF7AEFF00BF1037BD4680BDE1
S31508001D5080B584B000AF78607B689B6BFB607B685E
S31508001D601B681B6803F48073002B19D1FB680022DB
S31508001D70DA85FB681B68FA681268526922F0400225
S31508001D805A61FB6893F83930DBB2322B04D1FB6811
S31508001D90122283F8392003E0FB68012283F83920F0
S31508001DA0F86805F09FF800BF1037BD4680BD00BF34
S31508001DB080B584B000AF78607B689B6BFB60F86881
S31508001DC0FFF77AFF00BF1037BD4680BD80B584B0E7
S31508001DD000AF78607B689B6BFB60FB680022DA8546
S31508001DE0FB680022DA84FB68012283F83920FB6845
S31508001DF0DB6B43F01002FB68DA63F868FFF766FFEF
S31508001E0000BF1037BD4680BD80B485B000AF78608E
S31508001E100023FB607B6893F83930DBB2FB60FB6814
S31508001E20122B02D0FB68322B43D17B689B68B3F533
S31508001E30805F19D17B681B6ABB607B681B68BA68C0
S31508001E401288C2F308025A607B681B69002B05D109
S31508001E507B681B6A9A1C7B681A620EE07B681B6AA1
S31508001E605A1C7B681A6208E07B681A687B681B6ADA
S31508001E70581C796808621B7853607B68DB8C013BC9
S31508001E809AB27B68DA847B68DB8C002B0FD17B687F
S31508001E901B687A681268D26822F08002DA607B686A
S31508001EA01B687A681268D26842F04002DA6000233A
S31508001EB000E0022318461437BD4680BC704700BFB1
S31508001EC080B582B000AF78607B681B687A68126854
S31508001ED0D26822F04002DA607B6893F83930DBB2C8
S31508001EE0322B04D17B68222283F8392003E07B68F1
S31508001EF0012283F839207868FFF7CAFE00231846BE
S31508001F000837BD4680BD00BF80B584B000AF786095
S31508001F100023FB607B6893F83930DBB2FB60FB6813
S31508001F20222B02D0FB68322B7CD17B689B68B3F5E9
S31508001F30805F23D17B689B6ABB607B681B69002B2B
S31508001F400ED17B681B685B689BB2C3F308039AB221
S31508001F50BB681A807B689B6A9A1C7B689A6229E030
S31508001F607B681B685B689BB2DBB29AB2BB681A8057
S31508001F707B689B6A5A1C7B689A621BE07B681B69B4
S31508001F80002B0AD17B689B6A591C7A6891627A6829
S31508001F9012685268D2B21A700CE07B689B6A591CA8
S31508001FA07A6891627A6812685268D2B202F07F0241
S31508001FB0D2B21A707B68DB8D013B9AB27B68DA85F0
S31508001FC07B68DB8D002B2BD17B681B687A681268CF
S31508001FD0D26822F02002DA607B6893F83930DBB2E7
S31508001FE0322B04D17B68122283F8392013E07B68F0
S31508001FF01B687A681268D26822F48072DA607B6895
S315080020001B687A681268526922F001025A617B6875
S31508002010012283F83920786804F064FF002302E07F
S31508002020002300E0022318461037BD4680BD00BFD6
S31508002030F0B585B000AF78600023FB607B681B684D
S315080020401B69FB60FB6823F44053FB607B68DB6815
S31508002050FA681343FB607B681B68FA681A617B6839
S315080020601B68DB68FB60FB6823F4164323F00C034C
S31508002070FB607B689A687B681B691A437B685B69A7
S315080020801A437B68DB691343FA681343FB607B6872
S315080020901B68FA68DA607B681B685B69FB60FB682B
S315080020A023F44073FB607B689B69FA681343FB6003
S315080020B07B681B68FA685A617B68DB69B3F5004F71
S315080020C040F08C807B681B688C4A934204D07B68FE
S315080020D01B688B4A934240D17B681C68FFF77AFBE2
S315080020E0024613469B0013449A001A447B685B68B1
S315080020F05B00B2FBF3F3834AA2FB03235B091D01D2
S31508002100FFF768FB024613469B0013449A001A44DD
S315080021107B685B685B00B2FBF3F6FFF75BFB024686
S3150800212013469B0013449A001A447B685B685B005D
S31508002130B2FBF3F3734AA2FB03235B09642202FB97
S3150800214003F3F31A1B0132336E4AA2FB03235B091E
S3150800215003F00F032B43A360CCE07B681C68FFF7F2
S3150800216017FB024613469B0013449A001A447B68E1
S315080021705B685B00B2FBF3F3624AA2FB03235B09CD
S315080021801D01FFF705FB024613469B0013449A0000
S315080021901A447B685B685B00B2FBF3F6FFF7F8FA54
S315080021A0024613469B0013449A001A447B685B68F0
S315080021B05B00B2FBF3F3534AA2FB03235B096422D9
S315080021C002FB03F3F31A1B0132334E4AA2FB032325
S315080021D05B0903F00F032B43A3608BE07B681B6846
S315080021E0464A934204D07B681B68454A934240D1CD
S315080021F07B681C68FFF7EEFA024613469B001344F9
S315080022009A001A447B685B689B00B2FBF3F33D4A6D
S31508002210A2FB03235B091D01FFF7DCFA02461346FE
S315080022209B0013449A001A447B685B689B00B2FBC8
S31508002230F3F6FFF7CFFA024613469B0013449A00BB
S315080022401A447B685B689B00B2FBF3F32D4AA2FB3A
S3150800225003235B09642202FB03F3F31A1B013233DF
S31508002260284AA2FB03235B0903F00F032B43A36051
S3150800227040E07B681C68FFF78BFA024613469B0012
S3150800228013449A001A447B685B689B00B2FBF3F31D
S315080022901C4AA2FB03235B091D01FFF779FA0246D4
S315080022A013469B0013449A001A447B685B689B009C
S315080022B0B2FBF3F6FFF76CFA024613469B0013448B
S315080022C09A001A447B685B689B00B2FBF3F30D4ADD
S315080022D0A2FB03235B09642202FB03F3F31A1B0127
S315080022E03233084AA2FB03235B0903F00F032B438F
S315080022F0A360FFE700BF1437BD46F0BD00100140DC
S31508002300001401401F85EB5180B582B000AF78609C
S3150800231000F03AF880B483B000AF786039607B6823
S3150800232001221A603B68034A1A6000BF0C37BD4693
S3150800233080BC70470000002080B500AF00F02AF886
S31508002340024B034A9A6000BF80BD00BF00ED00E063
S315080023500000000880B500AF00F04AF800BF80BD55
S3150800236080B400AFBFF34F8F0549054BDB6803F414
S31508002370E062044B1343CB60BFF34F8F00BFFDE70A
S3150800238000ED00E00400FA0580B500AFFFF7E8FFAE
S31508002390FEE7000080B400AF124A124B1B6843F0F8
S315080023A0010313600F4B00229A600E4A0D4B1B68FF
S315080023B023F0847323F4803313600A4B0A4A5A6065
S315080023C0084A084B1B6823F480231360054B002238
S315080023D0DA60064B4FF000629A6000BFBD4680BCCB
S315080023E0704700BF003802401030002400ED00E0BE
S315080023F080B487B000AF00233B6100237B610223D2
S31508002400FB600023BB6002237B60324B9B6803F0B2
S315080024100C033B613B69042B07D0082B09D0002B22
S315080024203FD12D4B2D4A1A603FE02B4B2C4A1A60A0
S315080024303BE0284B5B6803F480039B0DBB60254B90
S315080024405B6803F03F037B60BB68002B0DD0244A12
S315080024507B68B2FBF3F21F4B596847F6C0730B4013
S315080024609B0903FB02F37B610CE01C4A7B68B2FB09
S31508002470F3F2184B596847F6C0730B409B0903FBE8
S3150800248002F37B61134B5B6803F440331B0C013387
S315080024905B00FB607A69FB68B2FBF3F30E4A1360D4
S315080024A003E00D4B0D4A1A6000BF0A4B9B6803F008
S315080024B0F0031B090B4AD35C3B61074B1A683B695F
S315080024C022FA03F3044A136000BF1C37BD4680BCDA
S315080024D0704700BF00380240080000200024F400BE
S315080024E040787D015489000898B500AFFDF794FF40
S315080024F0034601334FF47A7202FB03F2054B9B68DD
S315080025000549A1FB03139B09D31A4FF0000418468B
S31508002510214698BD10E000E08988888890B585B086
S3150800252000AF7860FFF7E0FF0A4601467B684FF088
S3150800253000045B1844EB0204C7E9023400BFFFF746
S31508002540D3FF0A460146D7E90234A24208BF994298
S31508002550F5D300BF1437BD4690BD00BF80B400AFA9
S31508002560BFF34F8F0549054BDB6803F4E062044B64
S315080025701343CB60BFF34F8F00BFFDE700ED00E0CC
S315080025800400FA0598B500AF02210C48FEF790FC46
S315080025900346002B01D1022400E00024102107483D
S315080025A0FEF786FC0346002B0CBF01230023DBB293
S315080025B01BB223431BB29BB2184698BD00000240CB
S315080025C080B500AF40210648FEF772FC0346002B93
S315080025D00CBF01230023DBB29BB2184680BD00BFA7
S315080025E00000024080B500AF20210648FEF760FCD7
S315080025F00346002B0CBF01230023DBB29BB218460F
S3150800260080BD00BF0000024080B500AF80210648AB
S31508002610FEF74EFC0346002B0CBF01230023DBB25A
S315080026209BB2184680BD00BF0000024098B500AFB7
S315080026304FF4947200213A4806F06FF9384A4FF081
S315080026400003384CC2E90234354A4FF00003354CD2
S31508002650C2E90434324B0122DA70314B002283F886
S3150800266079202F4B0022A3F87A20802200212E48B9
S3150800267006F053F92A4B0022A3F80021284B002222
S3150800268083F87820264A4FF000034FF00004C2E989
S315080026900C34234A4FF000034FF00004C2E90E340D
S315080026A01F4A4FF000034FF00004C2E910341C4AD9
S315080026B04FF000034FF00004C2E91234184A4FF0F5
S315080026C000034FF00004C2E91434154A4FF0000322
S315080026D04FF00004C2E91634114A4FF000034FF0D8
S315080026E00004C2E918340E4A4FF000034FF0000404
S315080026F0C2E91A340A4A4FF000034FF00004C2E94F
S315080027001C340A4B00221A70094B00221A70094B16
S3150800271000221A70084B00221A6000BF98BD00BF3D
S31508002720800000200040BF4000010020A8010020D2
S31508002730A9010020B01B0020041C002080B400AFB3
S31508002740034B00221A6000BFBD4680BC704700BF1D
S31508002750041C00200000000090B583B000AF284B91
S31508002760B3F87A30184605F0FBF9254B03F108044F
S31508002770D4E900341A46234605F058FA03460C46AF
S315080027801846214618A3D3E9002305F079FB03462A
S315080027900C461846214605F021FD03467B607868FD
S315080027A005F0CEF912A3D3E9002305F0CFFC0346C2
S315080027B0002B00D113E0124BB3F87A30184605F017
S315080027C0CFF903460C461A4623460BA1D1E9000168
S315080027D005F056FB03460C46094AC2E9023400BF17
S315080027E00C37BD4690BD00BF6666666666663940AC
S315080027F0000000000070C74000000000809A1241E7
S315080028008000002080B582B000AF20E0FB790A2B5B
S3150800281006D1154B1B68002B21DD00F029F81EE0B8
S31508002820114B1B6801334F2B05DD022003F00CFA10
S3150800283000F01EF814E0FB79202B08D90A4B1B6818
S315080028405A1C09490A6097F90710084AD15404F036
S31508002850FDFA0346FB71FB79FF2BD7D100E000BFD9
S3150800286000BF0837BD4680BD041C0020B41B0020ED
S3150800287090B583B000AF00233B600023FB71784B13
S315080028801B68784A0021D154754B00221A60764B92
S315080028901B78DBB2002B17D003F02CFA03460C4644
S315080028A0724AC2E9063403F03BFA03460C466F4AFD
S315080028B0C2E9083403F04CFA03460C466B4AC2E9EF
S315080028C00A34694B00221A70664B93F90030402B84
S315080028D003D1674804F036FCBBE003F0D5F903469C
S315080028E0002B30D0634804F017FC03F0C1F9034607
S315080028F03B603B68082B03D15F4804F00DFC4DE0B4
S315080029003B68072B03D15D4804F006FC46E03B68AC
S31508002910012B03D15A4804F0FFFB3FE03B68022B2A
S3150800292003D1584804F0F8FB38E03B68032B03D181
S31508002930554804F0F1FB31E0544804F0EDFB3868E3
S3150800294004F05AFC2AE0474B93F900303F2B02D19A
S315080029500123FB7122E0434800F0BAF803463B60C6
S315080029603B68002B1AD03B68042B03D1484804F077
S31508002970D3FB13E03B68052B03D1464804F0CCFB98
S315080029800CE03B68062B03D1434804F0C5FB05E081
S31508002990424804F0C1FB386804F02EFCFFF710FE2D
S315080029A00346002B02D03E4804F0B6FBFFF71AFE9A
S315080029B00346002B02D03B4804F0AEFBFFF724FE8B
S315080029C00346002B02D0384804F0A6FBFFF7DAFDD1
S315080029D0034603F00203002B02D0344804F09CFBA4
S315080029E0FFF7D0FD034603F00103002B02D0304861
S315080029F004F092FBFB79002B20D02E4804F08CFBC8
S31508002A0003F078F903460C461846214605F006FCFD
S31508002A100346184604F006FC274804F07DFB03F03D
S31508002A207FF903460C461846214605F0F7FB034690
S31508002A30184604F0F7FB214804F084FB204B1B786A
S31508002A40DBB2002B05D01E4B00221A701D4804F07D
S31508002A5063FB1D4804F060FB00BF0C37BD4690BD04
S31508002A60041C0020B41B0020A801002080000020C0
S31508002A7064890008788900087C890008808900082C
S31508002A8084890008888900088C89000890890008CC
S31508002A9094890008988900089C890008A08900087C
S31508002AA0A4890008A8890008AC890008B08900082C
S31508002AB0B4890008B8890008BC890008C0890008DC
S31508002AC0A9010020C8890008CC8900080000000078
S31508002AD02DE9F04FB9B006AFF863002387F88930BF
S31508002AE0002387F8BF3007F15002002313605360B4
S31508002AF09360D360136153614FF00003DB4CC7E961
S31508002B002C344FF0FF33C7F8AC304FF000034FF0CA
S31508002B100004C7E928340023C7F89C300023C7F807
S31508002B209830002387F89730D14A00231370B1E212
S31508002B30D7E920341846214604F068FD03460C46BA
S31508002B401846214605F022FB0346C7F8903097F948
S31508002B508830472B03D04D2B00F0958196E2D7F8A5
S31508002B6090305B2B00F28A8101A252F823F000BF55
S31508002B70E12C0008F12C00087D2E00087D2E0008A7
S31508002B80012D00087D2E00087D2E00087D2E0008E8
S31508002B90092D00087D2E0008272E00082F2E000874
S31508002BA07D2E00087D2E00087D2E00087D2E00084B
S31508002BB07D2E00087D2E00087D2E00087D2E00083B
S31508002BC0372E00083F2E00087D2E00087D2E0008AF
S31508002BD07D2E00087D2E00087D2E00087D2E00081B
S31508002BE07D2E00087D2E0008472E00087D2E000841
S31508002BF07D2E00087D2E00087D2E00087D2E0008FB
S31508002C007D2E00087D2E00087D2E00087D2E0008EA
S31508002C107D2E00087D2E00087D2E00087D2E0008DA
S31508002C207D2E00087D2E00087D2E00087D2E0008CA
S31508002C307D2E00087D2E00087D2E00087D2E0008BA
S31508002C407D2E00087D2E00084F2E0008592E0008FC
S31508002C507D2E00087D2E00087D2E00087D2E00089A
S31508002C607D2E00087D2E00087D2E00087D2E00088A
S31508002C707D2E00087D2E00087D2E00087D2E00087A
S31508002C807D2E00087D2E00087D2E00087D2E00086A
S31508002C907D2E00087D2E00087D2E00087D2E00085A
S31508002CA07D2E00087D2E00087D2E00087D2E00084A
S31508002CB07D2E00087D2E00087D2E00087D2E00083A
S31508002CC07D2E00087D2E00087D2E00087D2E00082A
S31508002CD07D2E00087D2E0008632E0008752E00083C
S31508002CE0012387F8BF30624A97F8BF305370C9E0AE
S31508002CF0022387F8BF305E4A97F8BF305370C1E0A9
S31508002D00032387F8BF30BDE097F889301A46FB6B76
S31508002D10134493F90030442B40F0818097F88930AA
S31508002D200133DBB287F88930F86B05F0FEFD024601
S31508002D3097F88930D31AC7F88C304D4BB3F8003161
S31508002D401A46D7F88C301344B3F5806F03D2D7F8F8
S31508002D508C30462B07D9464B01221A70444B1B78F8
S31508002D60184602F071FF0023A7F8943042E0404B62
S31508002D70B3F800311A46B7F894301344002B00DA3A
S31508002D800733DB1087F88B30394BB3F80031DAB2EA
S31508002D90B7F89430DBB21344DBB203F0070387F8C5
S31508002DA08A3097F889301A46B7F8943013441A4689
S31508002DB0FB6B134493F90030312B16D197F88B30FF
S31508002DC097F88B202A490A4492F8802051B297F83E
S31508002DD08A20012000FA02F252B20A4352B2D1B254
S31508002DE0234A13440A4683F88020B7F894300133FF
S31508002DF0A7F89430B7F89420D7F88C309A42B6D30F
S31508002E001B4BB3F80021D7F88C309BB213449AB207
S31508002E10174BA3F80021164B1B7800F0ADBE0C2308
S31508002E2087F8BF302EE0052387F8BF302AE006234F
S31508002E3087F8BF3026E00E4A0123937022E00C4A39
S31508002E40002393701EE0042387F8BF301AE0084A6F
S31508002E50002382F8783015E0054A012382F8783095
S31508002E6010E0034A0123D3700CE000BF0000F0BF56
S31508002E7080000020CE4A0023D37003E0CC4A062304
S31508002E80137003E102E1D7F89030013B622B00F2A0
S31508002E90F88001A252F823F0253000088330000894
S31508002EA02D3000082D3000083D300008833000081A
S31508002EB08330000883300008833000088330000818
S31508002EC08330000883300008833000088330000808
S31508002ED083300008833000088330000883300008F8
S31508002EE083300008833000088330000883300008E8
S31508002EF083300008833000088330000883300008D8
S31508002F0083300008833000088330000883300008C7
S31508002F1083300008833000088330000883300008B7
S31508002F2083300008833000088330000883300008A7
S31508002F308330000883300008833000088330000897
S31508002F408330000883300008833000088330000887
S31508002F508330000883300008833000088330000877
S31508002F608330000883300008833000088330000867
S31508002F708330000883300008833000088330000857
S31508002F808330000883300008833000088330000847
S31508002F908330000883300008833000088330000837
S31508002FA08330000883300008833000088330000827
S31508002FB08330000883300008833000088330000817
S31508002FC08330000883300008833000088330000807
S31508002FD083300008833000088330000883300008F7
S31508002FE083300008833000088330000883300008E7
S31508002FF08330000883300008833000084730000813
S315080030004F300008573000085F3000086730000866
S315080030106F300008773000088330000883300008D6
S315080030207F300008152387F8BF302EE00D2387F878
S31508003030BF305F4A0023A2F87A3026E05C4A0023B4
S31508003040A2F87A3021E00F2387F8BF301DE010235D
S3150800305087F8BF3019E0112387F8BF3015E012232F
S3150800306087F8BF3011E0132387F8BF300DE014232B
S3150800307087F8BF3009E0162387F8BF3005E0FFF769
S315080030806DFA4B4A06231370FFE700BF484B1B78BF
S31508003090002B0DD107F1890307F1800107F188009C
S315080030A0FA6B00F08BFD0346002B7FF441AD00E080
S315080030B000BF3F4B1B78002B03D03D4B1B7800F01D
S315080030C05BBD002387F8893007F168031822394960
S315080030D0184605F017FC1FE1354B9B78002B0BD0E3
S315080030E0D7E9200130A3D3E9002304F09FFD034666
S315080030F00C46C7E9303403E0D7E92034C7E9303451
S3150800310097F98830463B142B00F2068101A252F843
S3150800311023F000BF69310008193300081933000885
S31508003120193300081933000819330008DB32000880
S3150800313019330008FB320008193300086D320008FD
S3150800314019330008053300089F32000819330008B0
S31508003150193300081933000819330008B931000873
S31508003160B9310008B93100084FF000024FF00003EA
S31508003170D7E9300104F0D6FF0346002B02D00C4AEB
S31508003180042313700A4B5B78012B05D1084AD7E94B
S315080031903034C2E90434BFE0054AD7E93034C2E91D
S315080031A00234FFF7D9FAB7E066666666666639409E
S315080031B0800000209800002097F8BF30162B11D108
S315080031C097F98830A3F15805D7E9203418462146DF
S315080031D005F024F80246AB0007F1C8010B4443F892
S315080031E0842C99E097F8BF300C2B2ED09E4BDB78B9
S315080031F0002B0DD097F98830583BDB0007F1C80241
S315080032001344A3F16002D7E93034C2E900341CE064
S3150800321097F98830A3F1580597F98830583BDB00B1
S3150800322007F1C8021344603BD3E90001D7E930230C
S3150800323004F04AFB03460C4619462246EB0007F102
S31508003240C8000344603BC3E9001297F98830583B2D
S31508003250DB0007F1C8021344A3F17802D7E930343A
S31508003260C2E90034012387F8973055E097F8BF3054
S31508003270052B0FD1D7E920341846214604F0C6F9A4
S3150800328003460C461846214604F080FF0346C7F855
S315080032909C3041E0D7E92034C7E928343CE097F868
S315080032A0BF300D2B0DD1D7E920341846214604F03E
S315080032B095FF03469BB26C4AA2F87A30FFF74CFAA0
S315080032C02AE0D7E920341846214604F087FF03464A
S315080032D0DBB2654A82F879301EE0D7E92034184611
S315080032E0214604F093F903460C461846214604F095
S315080032F04DFF0346C7F898300EE0D7E92034C7E9F2
S315080033002C3409E0D7E920341846214604F03EFF5C
S315080033100346C7F8AC3000BF07F1890307F18001FF
S3150800332007F18800FA6B00F049FC0346002B7FF48E
S31508003330D3AE4D4B1B78002B03D04B4B1B7800F0BC
S315080033401BBC97F8BF30013B152B00F20C8401A279
S3150800335052F823F0AD3300086D3400080F37000823
S31508003360293700088F380008013B0008673B00082A
S31508003370673B0008673B0008673B0008673B000897
S315080033802F350008673B0008673B0008293B000803
S31508003390373B0008453B00084B3B0008513B0008FB
S315080033A0573B0008213B0008673B000897F8973011
S315080033B0002B00F0D383D7E91A012B4B93F878300A
S315080033C01A4613465B001344274A0633DB001344A8
S315080033D018CB1A46234604F077FA03460C461D46D0
S315080033E02646D7E91C01204B93F878301A4613462F
S315080033F05B00134401331C4A0633DB00134418CB25
S315080034001A46234604F060FA03460C469846A14637
S31508003410D7E91E01144B93F878301A4613465B0019
S3150800342013440233104A0633DB00134418CB1A46FA
S31508003430234604F049FA03460C46194622460A4B27
S3150800344003F11004D4E9003400200590002004900C
S31508003450CDE90234CDE9001242464B4628463146AC
S3150800346001F030FE7AE300BF8000002097F897301D
S31508003470002B00F07583D7E91A01A94B93F8783029
S315080034801A4613465B001344A54A0633DB00134469
S3150800349018CB1A46234604F017FA03460C469846F4
S315080034A0A146D7E91C019E4B93F878301A46134675
S315080034B05B00134401339A4A0633DB00134418CBE6
S315080034C01A46234604F000FA03460C469A46A346D3
S315080034D0D7E91E01924B93F878301A4613465B00DB
S315080034E0134402338E4A0633DB00134418CB1A46BC
S315080034F0234604F0E9F903460C4619462246884B4A
S3150800350003F10804D4E90034854890F87900844D1D
S31508003510B5F87A5005950490CDE90234CDE9001244
S3150800352052465B464046494601F0CCFD18E397F8FB
S315080035309730002B21D0D7E91434794A02F58872DE
S31508003540C2E90034D7E91634754A02F58C72C2E925
S315080035500034D7E918014FF000024FF0000304F0D9
S31508003560D7FD0346002B04D06D4B012283F80321B7
S3150800357003E06B4B002283F803214FF000024FF063
S315080035800003D7E9280104F0E1FD0346002B06D025
S31508003590634B03F58472D7E92834C2E90034D7F8B7
S315080035A0AC30002B05DBD7F8AC30DAB25C4B83F8CD
S315080035B020214FF000024FF00003D7E92C0104F058
S315080035C0BBFD0346002B00D1CDE2554BB3F80031C5
S315080035D0002B00F09280D7E91A01514B93F8783006
S315080035E01A4613465B0013444D4A0633DB00134460
S315080035F018CB1A46234604F067F903460C46984644
S31508003600A146D7E91C01464B93F878301A4613466B
S315080036105B0013440133424A0633DB00134418CBDC
S315080036201A46234604F050F903460C469A46A34622
S31508003630D7E91E013A4B93F878301A4613465B00D1
S3150800364013440233364A0633DB00134418CB1A46B2
S31508003650234604F039F903460C4619462246304BF0
S3150800366003F10804D4E900342D4890F879002D4D6B
S3150800367005950490CDE90234CDE9001252465B4621
S315080036804046494601F040F8254B03F58873D3E9CF
S3150800369000014FF000024FF0000304F02FFD03462F
S315080036A0002B0ED1D7E91C011D4B03F5847318CBEB
S315080036B01A46234604F008F903460C46C7E91C34A3
S315080036C01BE0174B03F58C73D3E900014FF000029A
S315080036D04FF0000304F012FD0346002B0DD1D7E985
S315080036E01A010F4B03F5847318CB1A46234604F0C8
S315080036F0E9F803460C46C7E91A34094B0022A3F831
S31508003700002180220021074805F007F92BE2044B27
S3150800371093F879301A46D7E9280101F0F3FC22E23A
S31508003720800000200001002002F0D4FE18220021AB
S31508003730B24805F0F2F807F1680318220021184686
S3150800374005F0EBF8AE4B03F16004D4E900343B63B3
S3150800375084F000437B63AA4B03F16804D4E9003480
S31508003760BB6284F00043FB62A54B03F17004D4E905
S315080037700034984684F00049CDE90089D7E90A2340
S31508003780D7E90C0101F070FD9D4B03F16004D4E903
S3150800379000343B6284F000437B62994B03F1680472
S315080037A0D4E90034BB6184F00043FB61944B03F118
S315080037B07004D4E900343B6184F000437B61D7E9A7
S315080037C00434CDE90034D7E90623D7E9080102F025
S315080037D0DBFA8B4B002283F87820894B03F16004CF
S315080037E0D4E90034BB6084F00043FB60D7E90234B7
S315080037F0C7E91A34824B03F16804D4E900343B6004
S3150800380084F000437B60D7E90034C7E91C347C4B5D
S3150800381003F17004D4E900349A4684F0004BC7E9F2
S315080038201EABD7E91A014FF00002764B04F04CF8AC
S3150800383003460C461D462646D7E91C014FF00002F2
S31508003840704B04F041F803460C469846A146D7E962
S315080038501E014FF000024FF0000304F035F803464E
S315080038600C4619462246664B03F11004D4E9003487
S315080038700020059000200490CDE90234CDE900121D
S3150800388042464B462846314601F01CFC6BE1D7F808
S315080038909C30002B04D0D7F89C30012B40F0628175
S315080038A0D7F89830022B40F0AF80D7F89C20134603
S315080038B05B001A44D7E91A3451490632D2000A4441
S315080038C0C2E90034D7F89C2013465B0013445A1CFF
S315080038D0D7E91C344A490632D2000A44C2E9003400
S315080038E0D7F89C2013465B0013449A1CD7E91E346C
S315080038F043490632D2000A44C2E90034404BD3E9B0
S3150800390006013F4B93F878301A4613465B0013447A
S315080039103B4A0633DB00134418CB1A46234603F00A
S31508003920D3FF03460C4618462146D7F89C20134673
S315080039305B001344324A0633DB00134418CB1A469D
S31508003940234603F0BFFF03460C46C7E91A342C4B3F
S31508003950D3E908012A4B93F878301A4613465B00D8
S3150800396013440133264A0633DB00134418CB1A46A0
S31508003970234603F0A9FF03460C4618462146D7F806
S315080039809C2013465B00134401331D4A0633DB00B3
S31508003990134418CB1A46234603F094FF03460C46F5
S315080039A0C7E91C34164BD3E90A01154B93F878304E
S315080039B01A4613465B0013440233114A0633DB00EA
S315080039C0134418CB1A46234603F07EFF03460C46DB
S315080039D018462146D7F89C2013465B001344023349
S315080039E0074A0633DB00134418CB1A46234603F06E
S315080039F069FF03460C46C7E91E34B3E09800002069
S31508003A008000002000001440D7F89830142B40F0AE
S31508003A10A980D7F89C2013465B009D18594BD3E91B
S31508003A200601584B93F878301A4613465B00134440
S31508003A30544A0633DB00134418CB1A46234603F0D0
S31508003A4043FF03460C464F49AA1DD2000A44C2E961
S31508003A500034D7F89C2013465B0013445D1C494B81
S31508003A60D3E90801474B93F878301A4613465B00AA
S31508003A7013440133434A0633DB00134418CB1A4672
S31508003A80234603F021FF03460C463E49AA1DD200F1
S31508003A900A44C2E90034D7F89C2013465B00134455
S31508003AA09D1C384BD3E90A01364B93F878301A46F1
S31508003AB013465B0013440233324A0633DB001344D1
S31508003AC018CB1A46234603F0FFFE03460C462D493B
S31508003AD0AA1DD2000A44C2E900344FF000034FF091
S31508003AE00004C7E91A344FF000034FF00004C7E991
S31508003AF01C344FF000034FF00004C7E91E3431E0D0
S31508003B00D7E91A341F4AC2E91834D7E91C341D4AC2
S31508003B10C2E91A34D7E91E341A4AC2E91C3422E02B
S31508003B200A2001F0FBFA1EE0FF2002F09DFFFF20AD
S31508003B3002F0ACFF17E0002002F096FF002002F02A
S31508003B40A5FF10E002F0D6FC0DE002F0E5FC0AE065
S31508003B5002F0F4FC07E002F003FD04E000BF02E017
S31508003B6000BF00E000BF07F168031822194606489F
S31508003B7004F0C8FE034B1B781846CC37BD46BDE893
S31508003B80F08F00BF800000209800002080B400AFAE
S31508003B90034B01221A7000BFBD4680BC704700BFA8
S31508003BA0A801002080B400AF034B01221A7000BFA1
S31508003BB0BD4680BC704700BFA901002080B584B00F
S31508003BC000AFF860B9607A603B603B681B781A46BC
S31508003BD07B68134493F90030002B01D100232BE0B6
S31508003BE03B681B781A467B68134493F90020FB68E8
S31508003BF01A70FB6893F90030402B04DDFB6893F9D3
S31508003C0000305A2B04DD0E4B05221A70002313E0F0
S31508003C103B681B780133DAB23B681A70BA683968B0
S31508003C20786800F011F80346002B04D1044B0422EF
S31508003C301A70002300E0012318461037BD4680BDE0
S31508003C408000002000000000B0B58AB000AFF86020
S31508003C50B9607A60BB681B781A46FB6813447B62B6
S31508003C607B6A5A1C7A6293F9003087F8233000235E
S31508003C7087F8223097F823302D2B0AD1012387F8AD
S31508003C8022307B6A5A1C7A6293F9003087F823300F
S31508003C900AE097F823302B2B06D17B6A5A1C7A62E6
S31508003CA093F9003087F823300023FB610023FB7665
S31508003CB00023BB7600237B7697F82330303B87F8C2
S31508003CC0233097F82330092B25D8BB7E0133BB76E2
S31508003CD0BB7E082B12D87B7E002B05D097F91B30AC
S31508003CE0DBB2013BDBB2FB76FB699A00FB69134446
S31508003CF05A0097F823301344FB6118E07B7E83F063
S31508003D000103DBB2002B12D097F91B30DBB201336B
S31508003D10DBB2FB760BE097F82330FE2B0FD17B7EC8
S31508003D2083F00103DBB2002B09D001237B767B6A83
S31508003D305A1C7A6293F9003087F82330BCE7BB7EB9
S31508003D40002B01D1002367E0F86903F0F9FE02466B
S31508003D500B46C7E904234FF000024FF00003D7E9EA
S31508003D60040104F0CBF90346002B3BD10EE02CA34B
S31508003D70D3E90023D7E9040103F058FF02460B46AE
S31508003D80C7E90423FB7E0233DBB2FB7697F91B30C7
S31508003D90B3F1FF3FEBDB97F91B30002B0BDA22A3BD
S31508003DA0D3E90023D7E9040103F040FF02460B4696
S31508003DB0C7E9042316E097F91B30002B12DD4FF0F4
S31508003DC000021B4BD7E9040103F030FF02460B46FD
S31508003DD0C7E90423FB7E013BDBB2FB7697F91B3070
S31508003DE0002BECDC97F82230002B07D03C697B6966
S31508003DF083F000457B68C3E9004504E07A68D7E9A3
S31508003E000434C2E900347A6AFB68D31ADBB2013B90
S31508003E10DAB2BB681A70012318462837BD46B0BD0A
S31508003E207B14AE47E17A843F9A9999999999B93F53
S31508003E300000244080B588B000AF0023FB6150E045
S31508003E40FA6913465B001344DB00294A1344BB6135
S31508003E502849284B1B6BBA6912681209012000FA17
S31508003E6002F213430B63BB691B6803F00F030122BD
S31508003E7002FA03F37B60BB695B68BB60BB699B683E
S31508003E80FB60BB69DB683B61BB691B697B61BB691E
S31508003E901B681B0903F5801380339B021A463B1DDA
S31508003EA019461046FCF762FEBB695B69002B15DBF9
S31508003EB0BB691B681B0903F5801380339B021846F0
S31508003EC0BB691B6803F00F03012202FA03F399B2D8
S31508003ED0BB695B69DBB21A46FDF702F8FB69013379
S31508003EE0FB61FB690D2BABD900BF2037BD4680BDF2
S31508003EF0D08900080038024080B500AF01224FF48F
S31508003F0000610248FCF7ECFF00BF80BD00000240DC
S31508003F1080B592B000AF0123BB610123FB61022388
S31508003F203B634FF480037B631923BB63F023FB6376
S31508003F3002233B6405237B6407F118031846FCF744
S31508003F40E7FF0F237B600223BB600023FB604FF46F
S31508003F50A0533B614FF480537B613B1D03211846F8
S31508003F60FDF71AFAFDF7ECFB0246074BA3FB022303
S31508003F709B091846FCF756FB0420FCF75FFB00BFBD
S31508003F804837BD4680BD00BFD34D621080B500AF2F
S31508003F90FCF7F6F9FFF7BCFFFFF74CFF02F05EFEF1
S31508003FA002F066FEFEF742FB00F008F801F0C8FDD5
S31508003FB0FFF7A2FFFEF726FCFCE700BF90B583B02B
S31508003FC002AF164B00221A70154B00221A700C22EB
S31508003FD00021144804F0A1FC4FF000034FF0000440
S31508003FE0CDE900344FF000020F4B4FF000000E49A8
S31508003FF001F03AF90D4B00221A70182200210C48DC
S3150800400004F08BFC0B4A4FF000034FF00004C2E9A2
S31508004010003400BF0437BD4690BD00BF30120020F3
S3150800402031120020341200200000144040120020F3
S3150800403048120020601200202DE9F043A5B002AF17
S31508004040C7E90201C7E900234FF000023A4BD7E956
S31508004050020103F0EBFD03460C461846214603F021
S315080040608BFA03467B644FF00002334BD7E9000115
S3150800407003F0DCFD03460C461846214603F07CFA9D
S315080040800346BB642AA3D3E90023D7E92A0103F030
S31508004090CDFD03460C461846214603F06DFA034645
S315080040A0FB64264B1B78DBB25BB2184601F03CF981
S315080040B00346FB670AE0224B1B78DBB2002B05D1CF
S315080040C001F0E2FD0346002B40F0F9821C4B1B78F9
S315080040D0DBB21A46FB6F9A42EDD01A4B1B78DBB25D
S315080040E0002B10D001F0E8FD044601F0EFFD8046F4
S315080040F001F0F6FD03461A464146204601F08EF8C1
S31508004100104B00221A700D4B1B78DBB21A46134669
S315080041105B011344DB000C4A1344BB67D7F8C03075
S31508004120002B13D1BB6F00221A701AE0AFF3008080
S3150800413032582F8EE338464000004940301200209E
S315080041403112002040120020B0010020BB6F072268
S315080041501A70BB6F6033A822D7F8C010184604F04F
S31508004160D1FBBB6F97F8B82083F84020BB6F0022BD
S315080041701A827A6CB84B1B689A4206DABB6F1B8A9E
S3150800418043F002039AB2BB6F1A82BA6CB24B5B68F1
S315080041909A4206DABB6F1B8A43F020039AB2BB6FBA
S315080041A01A827A6CAC4B1B68D31A184604F0A6FB25
S315080041B003461A46BB6F5A60BA6CA74B5B68D31A9C
S315080041C0184604F09BFB03461A46BB6F9A60FA6CC6
S315080041D0A14B9B68D31A184604F090FB03461A466F
S315080041E0BB6FDA60BB6FDA68BB6F9B689A4238BFF1
S315080041F01A46BB6F5B68934238BF13461A46BB6FB5
S315080042005A61BB6F5B69002B00F05B827A6C924B3C
S315080042101B68D31A184603F0A3FC4FF000028F4B15
S3150800422003F02EFE03460C46C7E90A34BA6C8A4BDD
S315080042305B68D31A184603F093FC4FF00002874BCD
S3150800424003F01EFE03460C46C7E90C34FA6C824B93
S315080042509B68D31A184603F083FC79A3D3E9002395
S3150800426003F00EFE03460C46C7E90E34D7E90A01E9
S31508004270D7E90A341A46234603F0D8FC03460C4607
S315080042809846A146D7E90C01D7E90C341A462346C5
S3150800429003F0CCFC03460C461A46234640464946DC
S315080042A003F012FB03460C469846A146D7E90E01D1
S315080042B0D7E90E341A46234603F0B8FC03460C46E3
S315080042C01A4623464046494603F0FEFA03460C467C
S315080042D01846214603F0D0F903460C46BA6FC2E9E0
S315080042E00E34BB6F03F13804D4E900341A4623466A
S315080042F04FF000005A4903F0C3FD03460C46C7E9D0
S315080043001C34D7E91C23D7E92C0103F08FFC03469C
S315080043100C46C7E91A34BB6FD3E90E01D7E91A234D
S3150800432003F084FC03460C46BA6FC2E90834BB6F37
S315080043305B69184603F014FCD7E91A2303F076FCE8
S3150800434003460C461846214603F006F803460C4673
S315080043501846214603F042FF0246BB6F9A61BB6FBF
S315080043605B69184603F0FCFBD7E91C2303F05EFCE7
S3150800437003460C461846214633A3D3E9002303F027
S3150800438055FC03460C461846214631A3D3E90023BB
S3150800439003F076FD03460C461846214602F0DCFF7C
S315080043A003460C461846214603F0F0FE0246BB6F4C
S315080043B0DA64B7F8BC30002B04D0BB6FB7F8BC2062
S315080043C0A3F85820D7E90A01D7E91C2303F02EFCE5
S315080043D003460C46C7E90434D7E90C01D7E91C2380
S315080043E003F024FC03460C46C7E90634D7E90E0158
S315080043F0D7E91C2303F01AFC03460C46C7E9083420
S315080044004FF000034FF00004C7E92034154B1B7822
S31508004410DAB2154B1B78DBB29A4200F0F280134BE6
S31508004420D3E900014FF000024FF0000303F08EFEBF
S315080044300346002B00F0E5800D4B1BE0AFF3008030
S3150800444032582F8EE33846400000000040773B4143
S31508004450000000000070C7403412002000004940E8
S315080044600000F03F301200203112002060120020B8
S315080044704812002018CB1D4684F00046D7E90434BC
S315080044801A4623462846314603F0D0FB03460C4617
S315080044901D462646964BD3E90201D7E906341A4645
S315080044A0234603F0C3FB03460C461A462346284612
S315080044B0314603F007FA03460C461D4626468C4B42
S315080044C0D3E90401D7E908341A46234603F0AEFBBC
S315080044D003460C461A4623462846314603F0F2F9A7
S315080044E003460C46C7E9183479A3D3E90023D7E96C
S315080044F0180103F00DFE0346002B00F08280BB6F07
S31508004500D3E908017B4B18CB1A46234603F01EFE57
S315080045100346002B02D0774B18CB04E0BB6F03F1A0
S315080045202004D4E90034C7E920346BA3D3E9002377
S31508004530D7E9180103F00AFE0346002B61D0D7E934
S3150800454018234FF000006C4903F0BCF903460C46EB
S31508004550184621464FF00002684B03F067FB0346F6
S315080045600C461846214603F087F8C7E916015CA3EE
S31508004570D3E90023D7E9160103F058FB03460C4696
S3150800458025461C46D7E916234FF000005A4903F082
S3150800459099F902460B462046294603F071FC034664
S315080045A00C461846214603F067F8D7E9202303F09E
S315080045B0CDFD0346002B02D0D7E920341FE048A3DF
S315080045C0D3E90023D7E9160103F030FB03460C466E
S315080045D025461C46D7E916234FF00000464903F046
S315080045E071F902460B462046294603F049FC034664
S315080045F00C461846214603F03FF803460C46C7E921
S315080046002034BA6FD7E92034C2E90C34BB6F03F102
S315080046103804D4E90034CDE900344FF000024FF0F5
S31508004620000331A1D1E9000100F032FFC7E9140106
S31508004630D7E91423D7E9200103F06AFD0346002BC6
S3150800464002D0D7E9203401E0D7E91434BA6FC2E9B9
S315080046500A34BB6FD3E90801D7E9142303F062FDD6
S315080046600346002B04D0BB6F012283F8422003E0E7
S31508004670BB6F002283F84220BB6F012283F84120DA
S3150800468007F1100318221946194804F03BF9BB6FC5
S3150800469003F12004D4E90034164AC2E90034FB6F5A
S315080046A0DAB2174B1A7007F144030C22194615485B
S315080046B004F028F901F0E8F801F090FA02E000BFEA
S315080046C000E000BF8C37BD46BDE8F083AFF300803D
S315080046D0666666666666EE3F666666666666EEBF2A
S315080046E0000000000018C5400000000040773BC1EC
S315080046F048120020601200200000F03F0000E03F52
S315080047003012002034120020B0B58EB008AFC7E9C9
S315080047100201C7E900234FF000034FF00004C7E980
S315080047200434FB6BD3E92245FB6BB3F8803018469B
S3150800473003F016FA02460B462046294603F076FA97
S3150800474003460C46C7E90434FB6B93F8A030002BEC
S3150800475000F02781FB6BD3E924014FF000024FF0EC
S31508004760000303F0F3FC0346002B45D0D7E90423E6
S31508004770D7E9020103F0A8F803460C461846214675
S31508004780FB6B03F19004D4E900341A46234603F080
S315080047909BF803460C461846214600230693002339
S315080047A0059300230493D7E90C34CDE90234D7E9FD
S315080047B00A34CDE90034D7E90023FFF73DFCD7E9F1
S315080047C00423D7E9020103F07FF803460C4618468E
S315080047D02146002306930023059300230493D7E973
S315080047E00C34CDE90234D7E90A34CDE90034D7E9E7
S315080047F00023FFF721FC01E2FB6BD3E924014FF00C
S3150800480000024FF0000303F083FC0346002B31D06F
S31508004810FB6BD3E92401D7E9022303F055F80346D5
S315080048200C461846214600230693002305930023C9
S315080048300493D7E90C34CDE90234D7E90A34CDE933
S315080048400034D7E90023FFF7F7FB0023069300237C
S31508004850059300230493D7E90C34CDE90234D7E94C
S315080048600A34CDE90034D7E90023D7E90201FFF776
S31508004870E3FBC3E1FB6BD3E926014FF000024FF0DF
S31508004880000303F063FC0346002B49D0D7E9042351
S31508004890D7E9000103F018F803460C4618462146E6
S315080048A0FB6B03F19804D4E900341A46234603F057
S315080048B00BF803460C4619462246002306930023A6
S315080048C0059300230493D7E90C34CDE90234D7E9DC
S315080048D00A34CDE9003413460A46D7E90201FFF740
S315080048E0ABFBD7E90423D7E9000102F0EDFF034645
S315080048F00C461946224600230693002305930023F7
S315080049000493D7E90C34CDE90234D7E90A34CDE962
S31508004910003413460A46D7E90201FFF78DFB6DE11D
S31508004920FB6BD3E926014FF000024FF0000303F0BA
S31508004930EFFB0346002B00F06181FB6BD3E92601F0
S31508004940D7E9002302F0C0FF03460C461946224663
S31508004950002306930023059300230493D7E90C3418
S31508004960CDE90234D7E90A34CDE9003413460A46BC
S31508004970D7E90201FFF760FB00230693002305939E
S3150800498000230493D7E90C34CDE90234D7E90A3475
S31508004990CDE90034D7E90023D7E90201FFF74CFB3C
S315080049A02CE1FB6BD3E924014FF000024FF0000322
S315080049B003F0CCFB0346002B35D0FB6B03F19004C8
S315080049C0D4E900341A462346D7E9020102F07AFFF1
S315080049D003460C46184621460023069300230593F2
S315080049E000230493D7E90C34CDE90234D7E90A3415
S315080049F0CDE90034D7E90023FFF71EFB0023069311
S31508004A000023059300230493D7E90C34CDE9023437
S31508004A10D7E90A34CDE90034D7E90023D7E90201FA
S31508004A20FFF70AFBEAE0FB6BD3E924014FF000022B
S31508004A304FF0000303F06CFB0346002B45D0D7E983
S31508004A400423D7E9020102F03FFF03460C46184645
S31508004A502146FB6B03F19004D4E900341A46234639
S31508004A6002F030FF03460C461846214600230693FB
S31508004A700023059300230493D7E90C34CDE90234C7
S31508004A80D7E90A34CDE90034D7E90023FFF7D4FA89
S31508004A90D7E90423D7E9020102F016FF03460C46BC
S31508004AA01846214600230693002305930023049302
S31508004AB0D7E90C34CDE90234D7E90A34CDE9003414
S31508004AC0D7E90023FFF7B8FA98E0FB6BD3E926018C
S31508004AD04FF000024FF0000303F038FB0346002BAB
S31508004AE037D0FB6B03F19804D4E900341A46234601
S31508004AF0D7E9000102F0E6FE03460C4619462246AF
S31508004B00002306930023059300230493D7E90C3466
S31508004B10CDE90234D7E90A34CDE9003413460A460A
S31508004B20D7E90201FFF788FA0023069300230593C5
S31508004B3000230493D7E90C34CDE90234D7E90A34C3
S31508004B40CDE90034D7E90023D7E90201FFF774FA63
S31508004B5054E0FB6BD3E926014FF000024FF0000347
S31508004B6003F0D6FA0346002B48D0D7E90423D7E941
S31508004B70000102F0A9FE03460C4618462146FB6BC7
S31508004B8003F19804D4E900341A46234602F09AFE43
S31508004B9003460C461946224600230693002305932E
S31508004BA000230493D7E90C34CDE90234D7E90A3453
S31508004BB0CDE9003413460A46D7E90201FFF73CFA65
S31508004BC0D7E90423D7E9000102F07EFE03460C4626
S31508004BD019462246002306930023059300230493CF
S31508004BE0D7E90C34CDE90234D7E90A34CDE90034E3
S31508004BF013460A46D7E90201FFF71EFAFB6B97F838
S31508004C00382083F88220FB6B93F8A030002B00F045
S31508004C102F81FB6BD3E924014FF000024FF000030C
S31508004C2003F094FA0346002B35D0FB6B069300235A
S31508004C30059300230493D7E90C34CDE90234D7E968
S31508004C400A34CDE90034D7E90023D7E90201FFF792
S31508004C50F3F9FB6B03F19004D4E900341A462346B2
S31508004C60D7E9020102F02EFE03460C4618462146F5
S31508004C70002306930023059300230493D7E90C34F5
S31508004C80CDE90234D7E90A34CDE90034D7E900235F
S31508004C90FFF7D2F912E2FB6BD3E924014FF00002C9
S31508004CA04FF0000303F034FA0346002B45D0D7E94A
S31508004CB00423D7E9020102F007FE03460C4618460C
S31508004CC02146FB6B06930023059300230493D7E93B
S31508004CD00C34CDE90234D7E90A34CDE90034D7E9F2
S31508004CE00023FFF7A9F9D7E90423D7E9020102F05F
S31508004CF0EBFD03460C4618462146FB6B03F1900470
S31508004D00D4E900341A46234602F0DCFD03460C4675
S31508004D10184621460023069300230593002304938F
S31508004D20D7E90C34CDE90234D7E90A34CDE90034A1
S31508004D30D7E90023FFF780F9C0E1FB6BD3E9260129
S31508004D404FF000024FF0000303F000FA0346002B71
S31508004D5037D0FB6B06930023059300230493D7E90A
S31508004D600C34CDE90234D7E90A34CDE90034D7E961
S31508004D700023D7E90201FFF75FF9FB6B03F19804FB
S31508004D80D4E900341A462346D7E9000102F09AFD11
S31508004D9003460C461946224600230693002305932C
S31508004DA000230493D7E90C34CDE90234D7E90A3451
S31508004DB0CDE9003413460A46D7E90201FFF73CF964
S31508004DC07CE1FB6BD3E926014FF000024FF00003AC
S31508004DD003F09EF90346002B00D16FE1D7E90423BF
S31508004DE0D7E9000102F070FD03460C461946224633
S31508004DF0FB6B06930023059300230493D7E90C3431
S31508004E00CDE90234D7E90A34CDE9003413460A4617
S31508004E10D7E90201FFF710F9D7E90423D7E900011A
S31508004E2002F052FD03460C4618462146FB6B03F179
S31508004E309804D4E900341A46234602F043FD034693
S31508004E400C461946224600230693002305930023A1
S31508004E500493D7E90C34CDE90234D7E90A34CDE90D
S31508004E60003413460A46D7E90201FFF7E5F825E1BB
S31508004E70FB6BD3E924014FF000024FF0000303F067
S31508004E8065F90346002B45D0D7E90423D7E9020183
S31508004E9002F01AFD03460C4618462146FB6B06939C
S31508004EA00023059300230493D7E90C34CDE9023493
S31508004EB0D7E90A34CDE90034D7E90023FFF7BCF86F
S31508004EC0D7E90423D7E9020102F0FEFC03460C46A3
S31508004ED018462146FB6B03F19004D4E900341A46C0
S31508004EE0234602F0F1FC03460C46184621460023E9
S31508004EF006930023059300230493D7E90C34CDE9E0
S31508004F000234D7E90A34CDE90034D7E90023FFF79C
S31508004F1093F8D3E0FB6BD3E924014FF000024FF07E
S31508004F20000303F0F5F80346002B31D0FB6B06931C
S31508004F300023059300230493D7E90C34CDE9023402
S31508004F40D7E90A34CDE90034D7E90023D7E90201C5
S31508004F50FFF772F8FB6BD3E92401D7E9022302F0C5
S31508004F60B3FC03460C461846214600230693002345
S31508004F70059300230493D7E90C34CDE90234D7E925
S31508004F800A34CDE90034D7E90023FFF755F895E050
S31508004F90FB6BD3E926014FF000024FF0000303F044
S31508004FA0D5F80346002B49D0D7E90423D7E90001F1
S31508004FB002F08AFC03460C4619462246FB6B06930A
S31508004FC00023059300230493D7E90C34CDE9023472
S31508004FD0D7E90A34CDE9003413460A46D7E902016F
S31508004FE0FFF72AF8D7E90423D7E9000102F06CFC99
S31508004FF003460C4618462146FB6B03F19804D4E990
S3150800500000341A46234602F05FFC03460C4619464E
S315080050102246002306930023059300230493D7E929
S315080050200C34CDE90234D7E90A34CDE90034134605
S315080050300A46D7E90201FEF7FFFF3FE0FB6BD3E91B
S3150800504026014FF000024FF0000303F061F8034613
S31508005050002B00D132E0FB6B069300230593002357
S315080050600493D7E90C34CDE90234D7E90A34CDE9FB
S315080050700034D7E90023D7E90201FEF7DDFFFB6B11
S31508005080D3E92601D7E9002302F01EFC03460C46A5
S31508005090194622460023069300230593002304930A
S315080050A0D7E90C34CDE90234D7E90A34CDE900341E
S315080050B013460A46D7E90201FEF7BEFF00BF1837B6
S315080050C0BD46B0BD90B58DB008AFC7E90201C7E9C6
S315080050D0002300230693BB8E059397F8303004937C
S315080050E0D7E90A34CDE90234D7E90834CDE90034E2
S315080050F0D7E90023D7E90201FEF79EFF00BF143760
S31508005100BD4690BD80B485B000AFC7E9020113461D
S31508005110FB7100BF1437BD4680BC704780B584B0AC
S3150800512000AF0346FB71144B1B78DBB25BB2184623
S3150800513000F0FAF80346FB6000BF104B1B78DBB2A1
S315080051401A46FB689A42F8D00B4B1B78DBB21A4614
S3150800515013465B011344DB00094A1344BB60BB6872
S31508005160FA791A70FB68DAB2034B1A7000F036FD4A
S3150800517000BF1037BD4680BD301200203112002016
S31508005180B001002080B400AF0B4B1B78DAB20B4B92
S315080051901B78DBB29A4201D1002309E0074B1B7842
S315080051A0DBB21A4613465B011344DB00044A134478
S315080051B01846BD4680BC70473012002031120020C8
S315080051C0B001002080B500AF0A4B1B78DAB20A4B53
S315080051D01B78DBB29A420AD0074B1B78DBB25BB26C
S315080051E0184600F0A1F80346DAB2034B1A7000BF5E
S315080051F080BD00BF301200203112002080B400AFFD
S31508005200044B00221A70044B00221A7000BFBD46D8
S3150800521080BC7047301200203112002090B585B04E
S3150800522000AFF860B9607A600C4AFB6813600B4AF5
S31508005230BB685360094A7B689360094A4FF00003CC
S315080052404FF00004C2E9003418220021054803F093
S3150800525064FB00BF1437BD4690BD00BF3412002062
S31508005260601200204812002090B585B000AFC7E94B
S315080052700201C7E900234FF00002214BD7E90201DA
S3150800528002F0D4FC03460C461846214602F074F98F
S3150800529002461C4B1A604FF00002194BD7E9000171
S315080052A002F0C4FC03460C461846214602F064F98F
S315080052B00246144B5A6010A3D3E90023D7E9080124
S315080052C002F0B4FC03460C461846214602F054F98F
S315080052D002460C4B9A600C4A4FF000034FF000044C
S315080052E0C2E9003418220021084803F016FB00BF63
S315080052F01437BD4690BD00BF32582F8EE33846405E
S315080053000000494034120020601200204812002094
S3150800531080B400AF034B01221A7000BFBD4680BCA3
S31508005320704700BF4012002080B483B000AF034628
S31508005330FB7197F90730DBB20133DBB2FB7197F9E2
S315080053400730102B01D10023FB7197F90730184657
S315080053500C37BD4680BC704780B483B000AF0346A7
S31508005360FB7197F90730002B01D11023FB7197F9D0
S315080053700730DBB2013BDBB2FB7197F90730184601
S315080053800C37BD4680BC7047B0B584B000AFC7E9DE
S315080053900201C7E90023D7E90023D7E9000102F093
S315080053A045FC03460C4625461C46D7E90223D7E9A1
S315080053B0020102F03BFC02460B462046294602F053
S315080053C081FA03460C4625461C46D7E908010246DB
S315080053D00B4602F079FA02460B462046294602F0A9
S315080053E04FFD03460C46184621461037BD46B0BD4C
S315080053F0B0B584B000AFC7E90201C7E90023D7E911
S31508005400080102460B4602F05FFA03460C461846A8
S315080054102146D7E90A2302F009FC03460C4625462D
S315080054201C46D7E90223D7E9020102F0FFFB024630
S315080054300B462046294602F045FA03460C46254601
S315080054401C46D7E90023D7E9000102F0EFFB024624
S315080054500B462046294602F037FA03460C462546EF
S315080054601C464FF00002094BD7E9080102F0DEFBA3
S3150800547002460B462046294602F002FD03460C4624
S31508005480184621461037BD46B0BD00BF0000104083
S31508005490B0B584B000AFC7E90201C7E90023D7E970
S315080054A00023D7E9000102F0C1FB03460C46254656
S315080054B01C46D7E9020102460B4602F005FA0246E7
S315080054C00B4610461946D7E9082302F0AFFB0246F9
S315080054D00B462046294602F0F5F903460C461846BF
S315080054E0214602F0C9F803460C46184621461037ED
